:100000000040002085640000C5640000C764000053
:1000100000000000000000000000000000000000E0
:10002000000000000000000000000000C9640000A3
:100030000000000000000000CB640000CD64000060
:10004000CF640000CF640000AD21000075200000E7
:100050000521000000000000CF640000CF64000014
:10006000CF640000CF640000CF640000CF640000C4
:10007000CF640000CF640000CF640000CF640000B4
:10008000CF640000CF640000CF640000CF640000A4
:10009000CF640000CF640000CF640000CF64000094
:1000A000CF640000CF6400000000000000000000EA
:1000B0000000000000000000000000000000000040
:1000C00010B5064C2378002B07D1054B002B02D02E
:1000D000044800E000BF0123237010BD8000002011
:1000E00000000000F8740000044B10B5002B03D092
:1000F0000349044800E000BF10BDC04600000000F6
:1001000084000020F8740000402292029A1A92465D
:100110007047C046174B002B00D1134B9D46FFF78D
:10012000F3FF00218B460F461348144A121A00F0C1
:1001300065F80E4B002B00D098470D4B002B00D0DC
:1001400098470020002104000D000D48002802D02F
:100150000C4800E000BF00F02DF82000290003F05B
:1001600021FB00F011F8C04600000800000000006C
:10017000000000000040002080000020AC0A0020A9
:100180000000000000000000084B10B50400002B28
:1001900002D0002100E000BF054B1868836A002BE5
:1001A00000D09847200000F031F8C0460000000061
:1001B0005470000070B500260C4D0D4C641BA4104B
:1001C000A64209D1002606F039FF0A4D0A4C641BED
:1001D000A410A64205D170BDB300EB589847013674
:1001E000EEE7B300EB5898470136F2E778000020BD
:1001F00078000020780000207C0000200300821896
:10020000934200D1704719700133F9E7FEE7C04609
:10021000F0B5C64600B5C6B090461D004C9F0029FB
:1002200025D00B68802106AE3000604A490006F0F8
:1002300055FA031E16DB0400062F0FD85C4ABF00D8
:10024000D25997460700404606F084FAC3190400C5
:10025000FF2B00D8A3E0002C04DBE41980235B0013
:100260009C420BD9002046B080BCB846F0BD062F9A
:1002700003D8504ABB00D3589F4600240A270025C4
:1002800006AE22007119002003F008FC2D18241A74
:10029000002802D1013F002F01D0002CF1D1012014
:1002A000E1E780210027490006A842462B6806F0B6
:1002B00015FA0400CFE780210027490006A86A69E3
:1002C0002B6804922A690392EA680292AA68019252
:1002D0006A680092424606F001FA0400BBE78021FA
:1002E0000027490006A82A692B680392EA6802924F
:1002F000AA6801926A680092424606F0EFF904008B
:10030000A9E780210027490006A8EA682B68029225
:10031000AA6801926A680092424606F0DFF904007A
:1003200099E780210027490006A8AA682B68019256
:100330006A680092424606F0D1F904008BE78021FA
:100340000027490006A86A682B680092424606F01A
:10035000C5F904007FE7802149001F003018C91A41
:10036000ADE7802149001F003018C91ADDE7802160
:1003700049001F003018C91AB5E7802149001F0045
:100380003018C91AC1E7802149001F003018C91A66
:100390008BE7802149001F003018C91AD3E706AE49
:1003A00022004146F01906F08FF954E7587000001A
:1003B000607000007C700000F0B545465746DE4690
:1003C0004E46E0B5C9B01500559A98469446539BE1
:1003D00063449A46002900D10DE14346002B00D129
:1003E000CCE00A230020079308AB0593002399462D
:1003F000534601934346202402930799059D8C465A
:10040000844463460200AC4606933133624463443D
:1004100003920493002914D01470547002290BD055
:100420009470D470147154719471D471082903D0EC
:1004300014720A2900D15472079A039B94466344AC
:1004400003930F218A46593100268846039B049A5C
:10045000029D0199A94200D9A5E0501CD91C1C702D
:100460005C709C708846147082460295721C0F2E38
:1004700055D01027BB1A9C464D469300D31A3033F3
:10048000CB1898426D4163460095C518AB464F4660
:100490005B464D4699427D412B00009D1D4300D196
:1004A000CAE003000B439B4603235D462B401D001F
:1004B0006B426B410F25AA1A934606225A45924178
:1004C00052421A4200D1B7E063469A080C236746AD
:1004D0005343029D934A5B180A604A608A600C315C
:1004E00004C08B42F8D103233900524699434B4351
:1004F000501802954344B21C8F4210D08A181C70C9
:100500005C709C700470102A09D0DC701C715C71E6
:1005100044700F2A03D09C71DC711C7284700D230F
:10052000049A00261374033B5374039A2633D4545D
:10053000263B1D00029A059B92469846069F43372C
:1005400043463A009919002003F0A8FA36183F1ADA
:10055000002802D1013D002D01D0002FF0D15346DB
:100560000293019B0020534500D946E7504649B00D
:10057000F0BCBB46B246A946A046F0BD08AA0B682F
:100580001400802105922000674A490006F0A6F871
:1005900003000020002BEADB984622000A23424495
:1005A000160007932FE05399A94220D95299495D2B
:1005B0000F09380037309F2900D807381870504687
:1005C000084007003737092801D8303007005F702E
:1005D000474656489C70405CB84300D12E210136F6
:1005E00011700135102E25D00333013231E75498B4
:1005F000691A415CDCE74346002B15D100230793C1
:1006000008AB1E000593280006F0A4F80400C228D9
:1006100000D9C22422002900300006F055F820003D
:10062000002340449846E1E60023079308AB0020EE
:100630000593DBE6029572E70C704C708C700470C9
:100640000E2E00D16BE7CC700C714C7144700D2EE6
:1006500000D164E78C71CC710C7284700C2E00D1C7
:100660005DE74C728C72CC72C4700B2E00D156E7D1
:100670000C734C738C7304710A2E00D14FE7CC734A
:100680000C744C744471092E00D148E78C74CC74FE
:100690000C758471082E00D141E74C758C75CC75B2
:1006A000C471072E00D13AE70C764C768C76047232
:1006B000062E00D133E7CC760C774C774472052EAA
:1006C00000D12CE78C77CC770C558472042E00D1A6
:1006D00025E72123CC540133CC540133CC54C472CC
:1006E000032E00D11BE732000133CC540133CC542C
:1006F0000133CC540E320473022E00D10FE70133C4
:10070000CC540133CC540133CC5444730E2A00D062
:1007100005E70133CC540133CC540133CC548473FA
:10072000FDE6C0462020202058700000C473000061
:1007300070B5084D04002B78074E002B02D033789B
:10074000834204D003F076FA012334702B7000202A
:1007500070BDC0469D0000209C00002000487047EE
:100760001102000000487047B903000070B5012075
:10077000FFF7DEFF041E01D0200070BDFFF7EEFF83
:100780000500FFF7EFFF024B5D619861F4E7C0469B
:10079000A0000020002310B582B00093034B0A0094
:1007A0005C6900210023A04702B010BDA00000201A
:1007B000012310B584B00093044B03925C690A00D6
:1007C00003AB0021A04704B010BDC046A00000202C
:1007D000002300B585B001AA906000210348138072
:1007E000536000F005F805B000BDC04601400000B0
:1007F000012010B50549FFF7CDFFBFF34F8F044B24
:10080000044ADA60BFF34F8FC046FDE798700000DE
:1008100000ED00E00400FA05F0B5DE4657464E460E
:100820004546E0B5D626834DFF36EC8B93469A4677
:1008300083B0B44253D00136B44240D2002C00D130
:10084000B2E0C426FF36B44200D0BBE023242C5DC6
:10085000032C44D12C8C784B23279C460423D94667
:1008600098460134A4B22C84644506D9B1E00478DA
:10087000FF2C54D101390130C9B20029F7D15823D6
:10088000EA5CA021573B93406C4AC9058B5010226B
:100890002B00290000926A48383328310F3A01F0C2
:1008A00035FB002800D0BCE0C4230120FF33EB83DC
:1008B00003B0F0BCBB46B246A946A046F0BDEE214F
:1008C00049008C4200D181E0F4225200944279D157
:1008D0000022232102206A541A70EA83E8E72B8B56
:1008E0009B453BD8EB8AA021013BEB825823EA5C75
:1008F000573B9340514AC9058B5002222B002900D7
:1009000000924F4838332831013A01F0FFFA0028AD
:1009100000D08CE0EE235B000120EB83C8E7FE2CC7
:100920007AD143460139C9B2EB5501300B1C594508
:1009300000D94B469BB2002B0FD00024065DEA681D
:10094000165501349C42F9D3EA68EE5DD4182B8326
:10095000EC60032EC4D12C8C83E72B835A46D21A29
:1009600092B2131CF02A00D9F0235822A95CA020CF
:10097000573A8A403149C005425029009CB2DBB247
:1009800000930122EB682E48283101F0BFFA0028BD
:100990004AD1EB6801201B19EB602B8BE418D6239E
:1009A000FF332C83EB8383E7AC8AEC82002C17D0D7
:1009B0002824FF262E550024FC3E2C8323342E555C
:1009C000002448E700230320EB8371E70021EC8A31
:1009D000ECE7022253461A7000230220EB8367E7FC
:1009E0002823FF22EA543033EA5CA021573B93408E
:1009F000124AC9058B5002222B0029000092104890
:100A000038332831013A01F081FA002806D1F42365
:100A10005B000120EB834BE70522DBE7FFF7D8FE05
:100A2000F5E7FFF7D5FE3FE7FFF7D2FEB1E7FFF7A7
:100A3000CFFE6FE7BC000020204E00000C05000038
:100A400040710000F0B5CE46474680B5C34CC5683E
:100A5000E38A017C9C4685B0002B08D101225833E3
:100A6000E35CA0279A40A123FF05DB00FA50232274
:100A7000A75C7A1E012A00D8B1E02223E25CD0B242
:100A8000042A00D1CDE0042858D8012800D17BE207
:100A9000022800D0A0E29B22A38B2E7892009342E2
:100AA00000D9ECE0243A934200D98EE0AC4A93425C
:100AB00001D100F05EFC00D8DAE0AA4A934200D1EE
:100AC00026E31232934200D0D9E0032332009A4346
:100AD00000D0B9E1F30700D523E30723A27A13403E
:100AE000032B01D100F0F2FB002F01D000F006FD36
:100AF00001232322A3549C4AA021A2629B4AC90538
:100B0000A2852532FF32A3543432A25C9848934028
:100B1000984A8B500F22230021000092383328314D
:100B2000093A01F0F3F9002801D000F0E8FC924BFB
:100B3000A38305B0C0BCB946B046F0BD052800D0BF
:100B40004AE2BA22A38B9200934200D126E300D955
:100B5000C2E18A4A934201D100F058FC013293422B
:100B600000D29BE1864A934204D01132934201D0D5
:100B700000F05BFC8023218B9B00994200D339E37A
:100B80005B1A9BB21A1CF02B00D9F0220120E368FB
:100B900007009C465823E35CA0269F40754BF60552
:100BA000F750230095B20090614471483833D2B2B7
:100BB00001F0ACF9002801D000F02DFD238BED18D9
:100BC000B8239B002583A383B3E76E4A944663440E
:100BD0009BB2232B53D86C4A9B00D3589F46426844
:100BE0008B1F1078DBB2AE1D4C2800D1F8E1002B32
:100BF00005D176E0013BDBB20136002B6ED03278B6
:100C0000FF2AF7D0022F00D1CBE023220021A154EC
:100C100019002223E25C35000027D0B2042A00D05C
:100C200031E7A522A38B9200934200D1F4E1574E05
:100C3000B34200D126E2002B00D1E4E100230620DC
:100C4000A38303AE222203210123A15400222031D9
:100C500062543370707062615832A25CA02193407C
:100C6000A122C905D2008B5030002368984760E765
:100C7000474A934200D10AE20132934204D300234F
:100C80000620A38303AEE3E0002B00D180E1043A09
:100C90009342F4D1002F00D05FE301232322A35419
:100CA0001D32A2623B4AA021A2852422A3543432E1
:100CB000A25CC90593402F4A2D488B500F22230078
:100CC0002100009238332831093A01F01FF9002839
:100CD00001D000F049FC2E4BA3832AE74C2800D119
:100CE00086E12225635D012B56D0012103AE717090
:100CF000625DD3B2042A00D180E3042B00D97AE1EB
:100D0000013B012B00D977E303230027635537709C
:100D1000635D002B00D124E3635D1120032B00D021
:100D200020E3134801F0D0F85823E25CA02113001F
:100D3000C133FF339B00C9055F5023236755E75438
:100D40000123A0219340A122C905D2008B50222368
:100D500003223000E25423689847EAE6BC000020F2
:100D600015020000220200005000000200FFFFFFF9
:100D7000407100000C0500005D020000BF02000091
:100D8000CF020000B7FDFFFFB07000009E02000020
:100D90000F0200000095FFFF00230026022F00D065
:100DA00033E701212322A15432788A4300D02CE773
:100DB0002423E25C3433E35CA0209940C84BC00597
:100DC000C150230021000E32D2B20092C548062243
:100DD00038332E3101F09AF8002800D1A9E6FCE062
:100DE00003239E4330D19B2301399B000135C9B2B7
:100DF000E36103AE330010222800FFF70DFD012848
:100E000000D896E63078002800D05CE34823E25C06
:100E10009209012A00D196E30023D20700D472E39D
:100E2000636080239B00238100230322A3833380FC
:100E30002233E2543633E25C573B9340A021A12297
:100E4000C905D2008B5020E000230420A38303AE09
:100E50002225032300276355377070705533E25CF9
:100E60009946573B9340A022D2059046A122414685
:100E7000D2008B50635D002B00D1CEE2635D112068
:100E8000032B00D17CE1FFF7A3FC8021964A974B0E
:100E9000C905D1503000236898474AE6002B00D09E
:100EA000C3E203222B78934300D060E2A27A073397
:100EB0001340012B00D1AEE2A38A012B00D9B4E389
:100EC0001E00E382002E00D0B7E2012B00D9DAE247
:100ED00000230020A38372E1C7229200934200D135
:100EE0009DE2103293422BD10023002924D1032FFD
:100EF000EED1238C7E4A01339BB22384934230D8B7
:100F00005823E25CA021573B9340754AC9058B509A
:100F100010222300210000927248383328310F3A02
:100F200000F0F4FF002800D072E3CB239B00A383E2
:100F3000FFE501338B42DAD2EA5C002AF9D0C7E739
:100F40006C4A934200D070E20023002910D1032F95
:100F500014D1238C664A01339BB22384934200D878
:100F60000EE300230220A38329E101338B42EED25A
:100F7000EA5C002AF9D023230022E2546646013EAF
:100F8000B6B2A38AE6829DE70222E2540023A3833D
:100F9000002F00D0DDE101232322A3541D32A262E1
:100FA000554AA021A2852422A3543432A25CC9054B
:100FB00093404B4A4B488B500F2223002100009254
:100FC00038332831093A00F0A1FF002800D0C1E1F0
:100FD00083239B00A383ACE50320FFF7F9FBA8E57F
:100FE000002B05D00739CBB2EE1D002B00D006E652
:100FF0000123013E06E6052B00D0FDE102233370FC
:101000005633E25C9CE603262B78B34300D018E607
:1010100001390135C9B2E261802203AE33002800F4
:101020009200FFF7F9FB012800D882E5307800280C
:1010300000D0DCE0A38A012B25D92322A35C002B5E
:1010400000D043E20133A3542932A2622B4AA021EB
:10105000A2852532FF32A3543432A25CC9059340E5
:101060001F4A20488B500F22230021000092383362
:101070002831093A00F04AFF002800D027E2204B2F
:10108000A38356E503AE00230020A383DAE5032300
:101090009E4300D0D8E6002F00D061E20123232236
:1010A000A354184A0521A262174A0E48A285242299
:1010B000A1543432A25CA0219340094AC9058B5047
:1010C0001322230021000092383328310D3A00F01A
:1010D0001DFF002800D044E20C4BA38329E5C04645
:1010E0000C050000407100000030004024050000A5
:1010F000204E0000060300000095FFFF00FFFFFFE9
:101100009E02000048000001AA87FFFF15020000B0
:10111000730700D490E00722A37A9343012213437C
:10112000A372FA22238CD20001339BB22384934210
:1011300000D967E1002F00D01AE201232322052104
:10114000A3541E32A262E34AE348A2852532FF324D
:10115000A1543432A25CA0219340E04AC9058B50CF
:101160001322230021000092383328310D3A00F079
:10117000CDFE002800D0FCE18D239B00A383D8E4A2
:10118000D54800F0A1FE4B464246E35CC133FF3335
:101190009B009F5023236755E75476E63A23E25C91
:1011A0001B3B1340052B00D1E6E10B3BFD22190050
:1011B0001140134200D11FE200230420A3836A469A
:1011C00002235073137322230322E254002320329C
:1011D000A35463615833E25C573B9340A021A122A2
:1011E000C905D2008B50236803A89847A1E40023C7
:1011F000A38327E5802292009446E368FE3A634485
:10120000E3602323FF3AE2543533E15CA020573BEF
:101210008B40B249C0054350230021000092AE48E4
:1012200038332831023A00F071FE002800D0F9E18D
:10123000BA239B00A3837CE4032332009A4300D0AB
:1012400002E60122324200D1B2E1FA21238CC90028
:1012500001339BB223848B4200D9D3E00723A17AC8
:101260000B40033B59424B419B01002F00D041E111
:101270002321022060545431A16296496730A18530
:101280002F31FF31605401316354FF231B06236368
:1012900024232A39E1543433E35CA0209A408F4957
:1012A000C005425023000F22210000928A483833A3
:1012B0002831093A00F02AFE002800D01BE1884BB3
:1012C000A38336E403239E4300D0BDE523004833C7
:1012D000E36001230122A382002F00D0A9E0232193
:1012E00062542631A1627B497B48A1852531FF31BB
:1012F00062545822A25CA0219340784AC9058B50C1
:101300000F2223002100009238332831093A00F0DF
:10131000FDFD002800D08DE0724BA383FFF709FC90
:1013200003239E4300D08FE5A9786B78EA78090201
:1013300019432B79120411431B060B431BBA5B00A4
:1013400001D4FFF7CAFB0822A37A1343A372FFF765
:10135000C4FB1120FFF73CFA3AE61120FFF738FAF8
:10136000B9E40820FFF734FA5823E25CE8E40420EB
:1013700025E7730709D40722A37A93430322134373
:10138000A37203239E4300D05EE50023A27A238448
:1013900007331340033B5A4253419B01002F00D0B7
:1013A0008DE023220221A1545432A262494A6731BE
:1013B000A2852F32FF32A1540132A354FF231B0612
:1013C000236324232A3AE2543433E25CA021573BBE
:1013D0009340424AC9058B500F22230021000092FE
:1013E0003D4838332831093A00F090FD002867D194
:1013F0003D4BA383FFF79DFB0320B3E758233170D8
:10140000E25C9DE4002303AEA38321E503222B7855
:10141000934300D0D0E6A38A52E5082033E5232386
:101420000322E254223B23846AE500230620A3839F
:10143000C5E61120FFF7CCF96EE7002204212283D4
:101440002332A1540532FB31A154273A9A429B41E1
:101450009343FE33D63963545823E35CA0219A406A
:101460001E4BC905CA502300210002221A483833F6
:101470002831009200F04AFD002800D0BEE01B4B4E
:10148000A383FFF756FB1A4BA02123855823E25C68
:10149000573B9340114AC9058B500322230021007A
:1014A00000920D4838332831013A00F02FFD002812
:1014B00000D0A6E0C7239B00A383FFF73AFB1120CF
:1014C000FFF786F994E70023A383C1E41120FFF717
:1014D0007FF9D4E500FFFFFF407100000C0500001C
:1014E000490200006702000022020000CF02000053
:1014F000FFFDFFFF1120FFF76BF9E0E61120FFF77A
:1015000067F9FFF714FB4F225033E35CA25C9B09A1
:1015100092009B184E22C021A25C090192020A404F
:1015200001339B185122A15C4B3A49000A405221D9
:10153000615CC90952184D21605C3E390140073990
:10154000521893406CE450235122E35CA25C1B02CE
:1015500001329A184F23E35C1B049B189B025FE443
:101560001120FFF735F9B7E5FFF732F9FFF7B3FBC5
:101570001120FFF72DF9FFE5032F50D1012323841C
:101580005823E25CA021573B9340434AC9058B5046
:1015900010222300210000924048383328310F3AAE
:1015A00000F0B4FC002874D13D4BA383FFF7C1FACF
:1015B000002F29D123230521E2545733A362394B4D
:1015C0003648A3852533FF33E1543433E35CA0214F
:1015D0009A401300304AC9058B5013222300210082
:1015E0000092383328310D3A00F090FC00280CD1DD
:1015F0002D4BA383FFF79DFAA183E0E5FFF7E8F801
:101600003DE7FFF7E5F855E71120FFF7E1F8EFE7D1
:10161000FFF7DEF889E4FFF7DBF8FFF7CFFA0023E6
:101620002384ABE4FFF7D4F802E6002F2DD1012389
:10163000232159202269635405316054100E013171
:101640006054100C01316054100A013160540131B2
:1016500062542D22D331A154093AA3543432A25CEE
:10166000A02193400C4AC9058B500F222300210072
:1016700000920A4838332831093A00F047FC002824
:1016800004D10A4BA383FFF754FA1120FFF7A0F807
:10169000F7E7FFF79DF887E70C05000040710000B1
:1016A0000603000000FFFFFF4F020000BF02000022
:1016B000222330B52B4C83B0E55C002D43D0E55C94
:1016C000032D3ED1002A42D00135E554A37A1B07F1
:1016D0003BD51304134363610023E0602320013AE8
:1016E000A383531E9A412161235C5132002B30D1D8
:1016F00001232354282022542922080EA054080C28
:101700000132A054080A0132A0540132A154FF2131
:101710000132A154093AA3543432A25CA02193406F
:10172000114AC9058B500F222300210000920F4857
:1017300038332831093A00F0E9FB00280ED103B014
:1017400030BD1120FBE70820F9E74902C1E7072077
:10175000F5E71238FFF73CF80020F0E7FFF738F81C
:101760000020ECE7BC0000200C05000040710000E8
:10177000222330B5484C83B0E55C002D46D0E55CB3
:10178000032D40D1002A45D00235E554A37A1D0728
:101790003ED5E06010041043606100202161A08309
:1017A000012A5AD007200340012B3ED02323E15CBD
:1017B000002935D10231E1545433A362374B002163
:1017C000E3623023E154110A0133E1540133E2545E
:1017D000FF220133E254323BDB3AA3543432A25CA1
:1017E000A02193402E4AC9058B500F2223002100CF
:1017F00000922C4838332831093A00F087FB002842
:101800000AD1002000E0112003B030BD0820FBE722
:101810004902BEE70720F7E7FEF7DAFF0020F3E70B
:101820001120FEF7D5FF0020EEE72322A05C002860
:10183000F6D1A35459300532A054080E0132A054F9
:10184000080C0132A054080A0132A0540132A154FC
:10185000FF210132A154093ABFE72323E05C0028AD
:10186000DED1E254282058230D0E23540130255494
:101870000D0C013025540D0A01302554013021543E
:101880002D21D330605409396254E35CA0219A4081
:10189000034BC905CA50A8E7BC00002000FF570051
:1018A0000C050000407100002223F0B5314C0D0002
:1018B000E35C87B0DEB2002B52D100294ED0C37852
:1018C000FF2B4BD04278FF2A48D00278FF2A45D020
:1018D0008278FF2A42D05822A3541A00A02103275D
:1018E000C132FF32C9059200575001229A401300BD
:1018F000A122D2008B50837802A90B7003781E4A74
:101900004B7043788E818B70FF23CB70FD3BFF3B88
:101910008B808023194EDB0430008B6000F00EFAC0
:1019200000281FD122230122E254A37A0E329343CE
:10193000A37200222323E2540533FF32E254210034
:101940002300F53A25603000009238332831093AF7
:1019500000F0DCFA002808D107B0F0BD0720FBE753
:101960000820F9E7FEF734FFDCE7FEF731FF00203F
:10197000F2E7C046BC000020450A000040710000AC
:1019800070B522250D4C635D002B15D0635D1120D1
:10199000032B00D070BD0A4800F096FA5823A0210E
:1019A0000022E35CC905C133FF339B005A50232357
:1019B0000020E2546255EDE70820EBE7BC00002070
:1019C000407100002223054AD15C032904D0D05C79
:1019D000431E9841C0B270470020FCE7BC000020C5
:1019E0002222034B00209A5C022A00D9181D70475E
:1019F000BC000020002909D0012905D1002A0CD003
:101A000004301060002000E006207047002A02D059
:101A100000201170F9E70020F7E70720F5E7C0463E
:101A200080697047F0B5C64600B51F4B05001B68BE
:101A30000C0084B0834205D01124200004B080BC87
:101A4000B846F0BD8769FFF7BDFF0028F4D13E001E
:101A50000C3622003300B04643CA43C3A288216833
:101A6000A068FFF785FEBB68041E0DD0002BE4D0F4
:101A7000812301A95B000B8043464B60BB692800B2
:101A80008B60BB689847D8E7002BD6D1FFF79AFF49
:101A90000028FBD1054B1B78002BCED0BB680D2452
:101AA000002BE5D1C9E7C046180100201C01002029
:101AB000F0B5C64600B51F4B05001B680C0084B08E
:101AC000834205D01124200004B080BCB846F0BD8C
:101AD0008769FFF777FF0028F4D13E000C3622001B
:101AE0003300B04643CA43C3A2882168A068FFF709
:101AF000DFFDBB68041E0DD0002BE4D0812301A9BB
:101B00005B000B8043464B60BB6928008B60BB6861
:101B10009847D8E7002BD6D1FFF754FF0028FBD118
:101B2000054B1B78002BCED0BB680D24002BE5D1D4
:101B3000C9E7C046180100201C010020F0B5144E72
:101B40000400336885B0834203D01125280005B016
:101B5000F0BD8769FFF736FF0028F6D1FFF710FFC9
:101B6000051E00D13060BB68002BEFD06A46012310
:101B700013712B005A1E93416A465371002302933E
:101B8000BB6920000393BB6801A99847DEE7C04604
:101B900018010020F0B5CE464746802380B50E00E0
:101BA0000169040085B09B00994228D11B4F112583
:101BB0003B689846002B05D0280005B0C0BCB9464C
:101BC000B046F0BD8369386015499A619E60143053
:101BD0009946FFF769FE051E13D043463B60002E71
:101BE000EAD0802301A95B000B8043464B604B4643
:101BF0009B6920008B604B469B689847DCE7062575
:101C0000DAE7002ED8D1FFF7DDFE0028FBD1054B27
:101C10001B78002BD0D00D253860CDE718010020AF
:101C2000291C00001C010020F0B5C64600B5224A60
:101C30004378224D137006782A680400904697690D
:101C400084B0012E0AD0022E22D0002E0BD0032009
:101C5000FEF7BEFD04B080BCB846F0BDBA68002AED
:101C6000F8D0022218E0FFF7BBFE03683B60802338
:101C70009B007B602B689B699B68002BEAD06B46BE
:101C80001E7163785A1E93416A46537102960BE0A7
:101C9000BA68002ADED0032269460A715A1E9341AF
:101CA0004B713B000C330293BB6940460393BB6806
:101CB00001A99847CEE7C0461C010020180100206A
:101CC000F0B500281EDB1B4B84089C460323C2B2E0
:101CD0001840FC331F00C026C000890187400B401C
:101CE0008340A4006444B600A559BD432B43A351CF
:101CF0001F231A40C0211E3B93400E4A49005350F7
:101D00001360F0BD0C4C0325A4460F23FF240340B1
:101D1000C2B228402500C000890185400C408440A3
:101D2000083B9B089B006344DE69AE433443DC619F
:101D3000DEE7C04600E100E000ED00E0F0B54F4610
:101D4000D6464646C0B544795B4D64012B191B7ECF
:101D50009146002B00D0A3E02A510B7B0E78012B7B
:101D600000D88AE00123A027B340A126FF05F60092
:101D7000BB51A02601270B78F605C133FF339B002A
:101D80009F51B4464E78FF2E00D181E0B7406246A5
:101D90004A4BD75033000327C133FF339B009F507A
:101DA0008F78FF2F00D16FE0A022D2059446002249
:101DB00090463B00BA4662464746C133FF339B001C
:101DC0009F50CB789C46FF2B16D062460123934050
:101DD000A022D2059446A122D200904662464746F0
:101DE000D3510322904662464746CB78C133FF3336
:101DF0009B009F50CB789C46624643795B01EB1871
:101E00009A760A7803689046A1224746D2009F50EE
:101E10002A4A9E50A2265246F6009A518A68284EB7
:101E20009A514E7B0F7B721E9641022F3AD0032FA0
:101E30003BD0012F3CD04A46224FDE5146794F79A4
:101E40007601AE19F776002A25D0C1220426920029
:101E50009E50FD32FF32033E9E500079097940B218
:101E6000FFF72EFF002300202C1963760133237621
:101E7000E0BCBA46B146A846F0BD0123A027B34056
:101E80000E4EFF05BB5174E701235B429A4698E76B
:101E90000126764284E7A0220121D2009950E1E791
:101EA0000820E5E704273E43C5E706273E43C2E78F
:101EB00001373E43BFE7C046200100200C0500006B
:101EC000240500005405000030B543790D4C5B013A
:101ED000E258002A14D01F2102790B4D1140012233
:101EE0008A4080216A500168C2220120920040424B
:101EF0008850A0200022C000E3180A501A7630BD96
:101F00000168F6E72001002000E100E0F0B5454659
:101F10005746DE464E46E0B583B00CAC9846237873
:101F200047799C46504B7F01DC19657E002D00D01F
:101F300095E0DD59AA46002D01D00125657645467C
:101F4000DC192561654603262575657FA160B543CB
:101F500022736577A47EFF2C08D00125A5402C00B4
:101F6000A025ED05A8464646404D7451C226B60050
:101F7000B04604260024B146DD190068A346464653
:101F80002C774C4684515E460534FF340651002AB6
:101F900015D00D78364C0551012A13D04A780251DC
:101FA0005246002A18D0C12304229B00C2500020B0
:101FB00003B0F0BCBB46B246A946A046F0BDE97EE0
:101FC0002B4A81506246012AEAD9DA19D17E284A81
:101FD00081505246002AE6D16A46D41DA322D2007F
:101FE0009246DA191B239C46214B842198464900CE
:101FF00094444358002BFCD0002343505346C3580D
:10200000157DDBB22370137F9D4202D925781669B6
:10201000F554137F177B0133DBB25D1C1377BD4290
:1020200013D3167DB54215D3BB42E2D3B342E0D3FE
:10203000937EFF2B15D001229A40A0211300A122EC
:10204000C905D20000208B50B2E793685B5D45461E
:102050004351CEE7634645461B784351C9E71120FB
:10206000A6E70020A4E7C046200100200C050000E0
:102070001C050000842200211F4B520030B59950EE
:10208000A32283B0D2009B586A461C48DBB2D371AE
:10209000037F027D9A4204D96A460169D279CA5403
:1020A000037F0133DBB2047B5A1C0377A2421DD3AA
:1020B000057DAA4214D3A34216D3AB4214D3837E28
:1020C000FF2B07D001229A40A0211300A122C905AD
:1020D000D2008B5000234376037108C8984703E071
:1020E000C17E054A064BD15003B030BD8368995C70
:1020F000014A034BD150F7E7003000402001002097
:102100001C05000084220021254B520030B5995057
:10211000A32283B0D2009B586A463420DBB2D3712D
:10212000204B3C315A5C185C904204D968461C6BC9
:10213000C079A0545A5C3C212C200132D2B25A54AE
:102140001C5C511CA14224D334201D5CA94219D32C
:10215000A2421CD3AA421AD33A229A5CFF2A07D081
:1021600001219140A0200A00A121C005C9004250D0
:102170000022392118005A5415395A5424301B6A48
:10218000984704E03B22995C054A074BD15003B0C5
:1021900030BD9B6A024A595C034BD150F7E7C046F9
:1021A00000400040200100201C050000C12330B584
:1021B0005E4A9B00D35885B09B0559D592235B009E
:1021C000D158002954D00021D1508121E533FF336B
:1021D0008900D150564B997E002901D101315160BF
:1021E000022269460A7090215048C9004258425064
:1021F00069460392DA7D68460A72DA680192002223
:10220000DA751A760ACB98478E21484A4900535806
:10221000002B0FD0464B9C8A9D7DAC4262D20020A1
:102220005050998A9868405C998A013189B29982A4
:10223000404BD050A2233D4A5B00D158002915D015
:102240000021D1503A4B997E002901D00121116023
:10225000DA7D002A0AD0002268460121DA755A7E0A
:1022600001700272DA680ACB0192984705B030BD5E
:10227000C1232E4A9B00D3585B07C5D58421490052
:102280005358002BC0D02A4BD87D002838D00020CE
:102290005050A320C000597E1258D86842545A7E2C
:1022A000D87D0132D2B25A765A7E8242ACD11A7EA1
:1022B000002A2AD19A7E002A02D101211B4A5160AC
:1022C000C22281201949920080008850002268466D
:1022D0000121DA755A7E01700272DA680ACB019226
:1022E000984791E700205050002DA3D06A46107007
:1022F00015729A689875019268460ACB984799E7D3
:102300005050A321C9005258CEE7DA751A69D9682E
:10231000DA6000226C46587E1A765A7601322072B4
:102320002270684601910ACB98476DE70020004073
:10233000600100201C0500000122014B1A7070474B
:102340007C010020A022802110B5114BD205D15074
:1023500084B071396944087080204000D050002357
:102360000C4C012223700C480093FFF7CFFD23781B
:10237000002B03D120BF2378002BFBD0A022A12368
:102380008021D205DB004900D15004B010BDC04609
:102390000C0500007C01002078710000A023A12220
:1023A000802110B5DB05D200995084B071396944A1
:1023B000087080200D4A4000985000230C4C0122E8
:1023C00023700C480093FFF7A1FD2378002B03D165
:1023D00020BF2378002BFBD0A022A1238021D2058F
:1023E000DB004900D15004B010BDC0460C05000010
:1023F0007C0100207871000070B5A020A125402448
:10240000194BC005ED0044511A68184B18491E00BD
:10241000C046C046C046C046C046C046C046C0468C
:102420008A4200D0C046013EF2D1124E8451124E73
:10243000C046C046C046C046C046C046C046C0466C
:102440008A4200D0C046013EF2D14451C046C04647
:10245000C046C046C046C046C046C0468A4200D0BC
:10246000C046013BF2D170BD74000020400D030056
:102470000024F4000C05000010270000F0B5C24C49
:1024800089B02378002B01D000F080FFBF4EFFF70A
:10249000B3FFBF4BBF491A68BF4BC046C046C046DA
:1024A000C046C046C046C046C0468A4200D0C0466C
:1024B000013BF2D1A020A224C005E40003599B06F1
:1024C00012D42025B54F3B00C046C046C046C0468A
:1024D000C046C046C046C0468A4200D0C046013B06
:1024E000F2D103591D42EED0A02280210F25AC4B22
:1024F000D205D1506D442A3129705631D150002374
:10250000A84C01222370290000933000FFF7FEFC45
:102510002378002B03D120BF2378002BFBD0A023EE
:10252000A12180228020DB05C90052005A5058505A
:10253000492129709A4930005A50002329002370FC
:10254000FF3A0093FFF7E2FC2378002B03D120BF72
:102550002378002BFBD0A023A12180228020DB0543
:10256000C90052005A505850552129708C493000EA
:102570005A50002329002370FF3A0093FFF7C6FC4E
:102580002378002B03D120BF2378002BFBD0A0237E
:10259000A12180228020DB05C90052005A505850EA
:1025A000202129707E4930005A50002329002370D1
:1025B000FF3A0093FFF7AAFC2378002B03D120BF3A
:1025C0002378002BFBD0A023A12180228020DB05D3
:1025D000C90052005A5058500821297070493000E3
:1025E0005A50002329002370FF3A0093FFF78EFC16
:1025F0002378002B03D120BF2378002BFBD0A0230E
:10260000A12180228020DB05C90052005A50585079
:1026100009212970624930005A5000232900237093
:10262000FF3A0093FFF772FC2378002B03D120BF01
:102630002378002BFBD0A023A12180228020DB0562
:10264000C90052005A50585018212970544930007E
:102650005A50002329002370FF3A0093FFF756FCDD
:102660002378002B03D120BF2378002BFBD0A0239D
:102670008021A1228020DB054900D2009950484AE0
:1026800098507F3828709950002301222370290028
:1026900000933000FFF73AFC2378002B03D120BFD2
:1026A0002378002BFBD0A023A12180228020DB05F2
:1026B000C90052005A5058503F2129703849300003
:1026C0005A50002329002370FF3A0093FFF71EFCA5
:1026D0002378002B03D120BF2378002BFBD0A0222E
:1026E000A12380218020D205DB004900D150D050A9
:1026F00000232B482B7011502370012200932900D6
:102700003000FFF703FC2378002B03D120BF237890
:10271000002BFBD0A023A12180228020DB05C90053
:1027200052005A505850322129701D4930005A50D9
:10273000002329002370FF3A0093FFF7E7FB23787B
:10274000002B03D120BF2378002BFBD0A023A12195
:1027500080228020DB05C90052005A5058502A219F
:1027600029700F4930005A50002329002370FF3A86
:102770000093FFF7CBFB2378002B15D120BF2378E4
:10278000002BFBD010E0C0466400002078710000F0
:10279000740000200024F400400D03001027000006
:1027A0000C0500007C010020A023A12180228020B4
:1027B000DB05C90052005A5058500E212970D749E4
:1027C00030005A50002329002370FF3A0093FFF78E
:1027D0009DFB2378002B03D120BF2378002BFBD057
:1027E000A023A12180228020DB05C90052005A507D
:1027F00058502A212970C94930005A500023290015
:102800002370FF3A0093FFF781FB2378002B03D15D
:1028100020BF2378002BFBD0A0228020A123D2054B
:102820004000DB00D0508023BC49535000232B7064
:10283000505023700122009329003000FFF766FBFF
:102840002378002B03D120BF2378002BFBD0A023BB
:10285000A12180228020DB05C90052005A50585027
:102860005F212970AD4930005A50002329002370A0
:10287000FF3A0093FFF74AFB2378002B03D120BFD8
:102880002378002BFBD0A023A12180228020DB0510
:10289000C90052005A505850692129709F49300090
:1028A0005A50002329002370FF3A0093FFF72EFBB4
:1028B0002378002B03D120BF2378002BFBD0A0234B
:1028C0008021A1228020DB054900D2009950934A43
:1028D00098507D38287099500023012223702900D8
:1028E00000933000FFF712FB2378002B03D120BFA9
:1028F0002378002BFBD0A022A12380218020D205A9
:10290000DB004900D150D050002384482B70115077
:1029100023700122009329003000FFF7F7FA237893
:10292000002B03D120BF2378002BFBD0A023A121B3
:1029300080228020DB05C90052005A505850542193
:102940002970764930005A50002329002370FF3A3D
:102950000093FFF7DBFA2378002B03D120BF237805
:10296000002BFBD0A022A12380218020D205DB00F8
:102970004900D150D050002368482B70115023706B
:102980000122009329003000FFF7C0FA2378002BC2
:1029900003D120BF2378002BFBD0A023A1218022CC
:1029A0008020DB05C90052005A505850442129703C
:1029B0005A4930005A50002329002370FF3A0093EF
:1029C000FFF7A4FA2378002B03D120BF2378002B34
:1029D000FBD0A0238021A1228020DB054900D2006A
:1029E00099504E4A98507B38287099500023012204
:1029F0002370290000933000FFF788FA2378002B1A
:102A000003D120BF2378002BFBD0A023A12180225B
:102A10008020DB05C90052005A50585040212970CF
:102A20003E4930005A50002329002370FF3A00939A
:102A3000FFF76CFA2378002B03D120BF2378002BFB
:102A4000FBD0A023A12180228020DB05C9005200F9
:102A50005A5058501F212970304930005A500023D5
:102A600029002370FF3A0093FFF750FA2378002BD8
:102A700003D120BF2378002BFBD0A023A1218022EB
:102A80008020DB05C90052005A5058501F21297080
:102A9000224930005A50002329002370FF3A009346
:102AA000FFF734FA2378002B03D120BF2378002BC3
:102AB000FBD0A023A12180228020DB05C900520089
:102AC0005A5058502C212970144930005A50002374
:102AD00029002370FF3A0093FFF718FA2378002BA0
:102AE00003D120BF2378002BFBD0A0238021A1227B
:102AF0008020DB054900D2009950084A98507A3866
:102B0000287099500023012223702900009330007F
:102B1000FFF7FCF92378002B06D101E00C0500003B
:102B200020BF2378002BFBD0A023A121802280206E
:102B3000DB05C90052005A5058506F212970D849FE
:102B400030005A50002329002370FF3A0093FFF70A
:102B5000DDF92378002B03D120BF2378002BFBD095
:102B6000A023A12180228020DB05C90052005A50F9
:102B700058501F212970CA4930005A50002329009B
:102B80002370FF3A0093FFF7C1F92378002B03D19C
:102B900020BF2378002BFBD0A023A12180228020FE
:102BA000DB05C90052005A5058501F212970BC49FA
:102BB00030005A50002329002370FF3A0093FFF79A
:102BC000A5F92378002B03D120BF2378002BFBD05D
:102BD000A023A12180228020DB05C90052005A5089
:102BE000585022212970AE4930005A500023290044
:102BF0002370FF3A0093FFF789F92378002B03D164
:102C000020BF2378002BFBD0A0238021A12280208D
:102C1000DB054900D2009950A14A985078382870B5
:102C20009950002301222370290000933000FFF700
:102C30006DF92378002B03D120BF2378002BFBD024
:102C4000A023A12180228020DB05C90052005A5018
:102C500058506F212970924930005A5000232900A2
:102C60002370FF3A0093FFF751F92378002B03D12B
:102C700020BF2378002BFBD0A023A121802280201D
:102C8000DB05C90052005A5058501F212970844951
:102C900030005A50002329002370FF3A0093FFF7B9
:102CA00035F92378002B03D120BF2378002BFBD0EC
:102CB000A023A12180228020DB05C90052005A50A8
:102CC00058501F212970764930005A50002329009E
:102CD0002370FF3A0093FFF719F92378002B03D1F3
:102CE00020BF2378002BFBD0A023A12180228020AD
:102CF000DB05C90052005A505850222129706849FA
:102D000030005A50002329002370FF3A0093FFF748
:102D1000FDF82378002B03D120BF2378002BFBD0B4
:102D2000A0238021A1228020DB054900D2009950F8
:102D30005B4A98506D382870995000230122237007
:102D4000290000933000FFF7E1F82378002B03D12E
:102D500020BF2378002BFBD0A022A123802180203C
:102D6000D205DB004900D150D05000234C482B70D5
:102D7000115023700122009329003000FFF7C6F89C
:102D80002378002B03D120BF2378002BFBD0A02376
:102D9000A12180228020DB05C90052005A505850E2
:102DA000042129703E4930005A5000232900237025
:102DB000FF3A0093FFF7AAF82378002B03D120BF36
:102DC0002378002BFBD0A0238021A1228020DB05CB
:102DD0004900D2009950324A985050382870995082
:102DE000002301222370290000933000FFF78EF8A2
:102DF0002378002B03D120BF2378002BFBD0A02306
:102E0000A12180228020DB05C90052005A50585071
:102E10003C212970224930005A5000232900237098
:102E2000FF3A0093FFF772F82378002B03D120BFFD
:102E30002378002BFBD0A0238021A1228020DB055A
:102E40004900D2009950164A98503F38287099503E
:102E5000002301222370290000933000FFF756F869
:102E60002378002B03D120BF2378002BFBD0A02296
:102E7000A12380218020D205DB004900D150D05011
:102E8000002307482B701150237001220093290062
:102E90003000FFF73BF82378002B07D102E0C04653
:102EA0000C05000020BF2378002BFBD0A02380213D
:102EB000A1228020DB054900D2009950D74A9850C2
:102EC0003038287099500023012223702900009384
:102ED0003000FFF71BF82378002B03D120BF2378A5
:102EE000002BFBD0A023A12180228020DB05C9007C
:102EF00052005A5058503F212970C84930005A504A
:102F0000002329002370FF3A0093FEF7FFFF237888
:102F1000002B03D120BF2378002BFBD0A0238021DE
:102F2000A1228020DB054900D2009950BB4A98506D
:102F30002038287099500023012223702900009323
:102F40003000FEF7E3FF2378002B03D120BF237866
:102F5000002BFBD0A023A12180228020DB05C9000B
:102F600052005A50585002212970AC4930005A5032
:102F7000002329002370FF3A0093FEF7C7FF237850
:102F8000002B03D120BF2378002BFBD0A022A1234C
:102F900080218020D205DB004900D150D050002391
:102FA0009E482B701150237001220093290030009D
:102FB000FEF7ACFF2378002B03D120BF2378002B32
:102FC000FBD0A0238021A1228020DB054900D20074
:102FD0009950924A98501F38287099500023012226
:102FE0002370290000933000FEF790FF2378002B18
:102FF00003D120BF2378002BFBD0A023A121802266
:103000008020DB05C90052005A5058500321297016
:10301000824930005A50002329002370FF3A009360
:10302000FEF774FF2378002B03D120BF2378002BF9
:10303000FBD0A023A12180228020DB05C900520003
:103040005A50585020212970744930005A5000239A
:1030500029002370FF3A0093FEF758FF2378002BD6
:1030600003D120BF2378002BFBD0A023A1218022F5
:103070008020DB05C90052005A50585001212970A8
:10308000664930005A50002329002370FF3A00930C
:10309000FEF73CFF2378002B03D120BF2378002BC1
:1030A000FBD0A023A12180228020DB05C900520093
:1030B0005A505850E0212970584930005A50002386
:1030C00029002370FF3A0093FEF720FF2378002B9E
:1030D00003D120BF2378002BFBD0A0238021A12285
:1030E0008020DB054900D20099504C4A98500230AC
:1030F000287099500023012223702900009330008A
:10310000FEF704FF2378002B03D120BF2378002B88
:10311000FBD0A023A12180228020DB05C900520022
:103120005A5058501E2129703C4930005A500023F3
:1031300029002370FF3A0093FEF7E8FE2378002B66
:1031400003D120BF2378002BFBD0A0238021A12214
:103150008020DB054900D2009950304A9850043055
:103160002870995000230122237029000093300019
:10317000FEF7CCFE2378002B03D120BF2378002B51
:10318000FBD0A022A12380218020D205DB004900B2
:10319000D150D050002321482B70115023700122B0
:1031A000009329003000FEF7B1FE2378002B03D1F5
:1031B00020BF2378002BFBD0A0238021A1228020D8
:1031C000DB054900D2009950144A98500630287007
:1031D0009950002301222370290000933000FEF74C
:1031E00095FE2378002B03D120BF2378002BFBD042
:1031F000A022A12380218020D205DB004900D150EC
:10320000D050002305482B701150237001220093E9
:1032100029003000FEF77AFE237801E00C0500005B
:10322000002B03D120BF2378002BFBD0A0238021CB
:10323000A1228020DB054900D2009950664A9850AF
:1032400063302870995000230122237029000093D5
:103250003000FEF75BFE2378002B03D120BF2378DC
:10326000002BFBD0A023A12180228020DB05C900F8
:1032700052005A5058502F212970574930005A5047
:10328000002329002370FF3A0093FEF73FFE2378C6
:10329000002B03D120BF2378002BFBD0A02380215B
:1032A000A1228020DB054900D20099504A4A98505B
:1032B0006030287099500023012223702900009368
:1032C0003000FEF723FE2378002B03D120BF2378A4
:1032D000002BFBD0A022A12380218020D205DB007F
:1032E0004900D150D05000233B482B70115023701F
:1032F0000122009329003000FEF708FE2378002BFE
:1033000003D120BF2378002BFBD0A0238021A12252
:103310008020DB054900D20099502F4A9850663032
:103320002870995000230122237029000093300057
:10333000FEF7ECFD2378002B03D120BF2378002B70
:10334000FBD0A022A12380218020D205DB004900F0
:10335000D150D050002320482B70115023700122EF
:10336000009329003000FEF7D1FD2378002B03D114
:1033700020BF2378002BFBD0A022A1238021002096
:10338000D205DB004900D15009B0F0BDA023E321F4
:103390000322DB05C9005A5010495A500421104A33
:1033A000995004A90A000F4B61CB61C21B680E4EF5
:1033B000136080239B048B600C4B30000C4A0493F9
:1033C000FEF7BCFC002803D100232370FFF75FF851
:1033D000FDF7FEF9F8E7C0460C0500001C070000E9
:1033E000140700006071000078710000090A0B08E2
:1033F00039230000F0B5C646A02280210F2500B574
:10340000764B84B0D205D1506D447C392970FC31A3
:10341000D1500023724C734E237001220093290077
:103420003000FEF773FD2378002B03D120BF2378F3
:10343000002BFBD0A022A1238021D205DB00490074
:10344000D150A221C90053589B0617D4664B2020A7
:103450001B68664F9846664B9C463B00C046C0467C
:10346000C046C046C046C046C046C046E04500D043
:10347000C046013BF2D153581842EED0A022802121
:10348000564BD205D1506E392970EE31D150002300
:1034900001222370290000933000FEF737FD2378C6
:1034A000002B03D120BF2378002BFBD0A022A12327
:1034B00080218020D205DB004900D150D05000236C
:1034C00046482B70115023700122009329003000D0
:1034D000FEF71CFD2378002B03D120BF2378002B9F
:1034E000FBD0A022A1238021D205DB004900D150CE
:1034F000A221C90053589B0617D43B4B20201B68C0
:103500003A4F98463A4B9C463B00C046C046C046A0
:10351000C046C046C046C046C046E04500D0C04692
:10352000013BF2D153581842EED0A02280212B4B00
:10353000D205D1507E392970FE31D15000230122AD
:103540002370290000933000FEF7E0FC2378002B65
:1035500003D120BF2378002BFBD0A022A123802100
:103560008020D205DB004900D150D05000231B48F9
:103570002B70115023700122009329003000FEF7B8
:10358000C5FC2378002B03D120BF2378002BFBD070
:10359000A022A1238021D205DB004900D150A22125
:1035A000C90053589B0615D420200F4B104D1E68A0
:1035B0000E4C2300C046C046C046C046C046C0466A
:1035C000C046C046AE4200D0C046013BF2D153587F
:1035D0001842EED004B080BCB846F0BD0C05000027
:1035E0007C0100207871000074000020102700008A
:1035F0000024F400F0B55746DE4645464E46A0226C
:103600008021E0B5314B87B0D205D15002A98C465C
:103610000F27102167443970F031D1502C4A002314
:1036200092462C4C0500237001220093390050462D
:10363000FEF76CFC2378002B03D120BF2378002BEE
:10364000FBD080235B009846A022A1234146DB00EB
:10365000D205D1502B011D43EBB20293C8235B006E
:103660000393A123DB009946184BF026A0259B4627
:103670007600ED054B468022EA50029B42463B70A5
:103680005B46EA5000230122237039000093504624
:10369000FEF73CFC2378002B03D120BF2378002BBE
:1036A000FBD04B464246013EEA50002EE2D1039B3E
:1036B000013B0393002BD4D1FFF79CFE07B0F0BC75
:1036C000BB46B246A946A046F0BDC0460C05000068
:1036D000787100007C01002030B5A02285B08021E7
:1036E00068462A4BD205D1507939C173F931D1508E
:1036F0000023274C274DF139237001220093280025
:103700006944FEF703FC2378002B03D120BF237804
:10371000002BFBD0A023A12180228020DB05C90043
:1037200052005A505850A5216846C17317492800C5
:103730005A5000230F212370FF3A00936944FEF78B
:10374000E5FB2378002B03D120BF2378002BFBD08F
:10375000A023A1228021DB05D200490099500E4A06
:103760000E4811680E4AC046C046C046C046C04614
:10377000C046C046C046814200D0C046013AF2D1A0
:103780004021024A995005B030BDC0460C050000EA
:103790007C01002078710000740000200024F400F7
:1037A000A0860100F0B5DE4657464E464546E0B5D8
:1037B00000208BB0FCF7DAFF002800D018E1FEF7FC
:1037C0001BFEFEF75BFE002800D014E19049033099
:1037D000FCF7E0FF8F4B904E9A4604AB98468F4B18
:1037E0008F4D99468F4B904F9B4601218F4800F09B
:1037F0008FFB03208E49FCF7CDFF002000F060FA1C
:1038000000280AD0002000F05BFA002805D0002034
:1038100000F056FA002800D0D1E0864B86485B695C
:103820000193984741688020400302F0C1FE019B4C
:103830000400814898472100006802F0B9FE7F49E2
:1038400002000320FCF7B4FF03207D49FCF7A2FF30
:1038500001227C497C4802F00FF9002800D0A9E041
:1038600003207A49FCF796FF79497A4802F07AFCFE
:10387000002800D0A8E013207749FCF78BFF5146C1
:10388000764A774B774802F0B3FD774A04007749D0
:103890000320FCF78DFF002C00D086E053465B7AB6
:1038A000002B00D19FE04346714A03CA03C312882C
:1038B00002A884461A801223634418000C220021B7
:1038C000FCF79CFC0D226849404602F04AFF0122A9
:1038D0004146300002F008F94246002800D07DE061
:1038E00003206449FCF764FFFEF7C8FD002800D000
:1038F0006FE00120FFF77EFE4B461A685E4BC04624
:10390000C046C046C046C046C046C046C0465A45EE
:1039100000D0C046013BF2D11020FEF713FDC822B3
:1039200003AB29005200300002F056FA39000320A0
:10393000039AFCF73DFF039B002B08D00024285D71
:10394000FEF72CFD039B01349C42F8D3E7E73000DF
:1039500002F090FBFFF74EFD4B461A68464BC046FF
:10396000C046C046C046C046C046C046C0465A458E
:1039700000D0C046013BF2D1FFF7AEFE4B461A68BD
:103980003E4BC046C046C046C046C046C046C04684
:10399000C0465A4500D0C046013BF2D1314851469D
:1039A00002F022FC002800D178E703203449FCF71C
:1039B000F1FE1AE703203349FCF7ECFE15E703207C
:1039C0003149FCF7E7FE10E703203049FCF7E2FE3F
:1039D0000BE703202E49FCF7DDFE06E703202D4907
:1039E000FCF7E6FE01E703202B49FCF7D3FEFCE6DB
:1039F000FCF7EEFEE3E603202549FCF7CBFE0120B1
:103A000040420BB0F0BCBB46B246A946A046F0BD52
:103A10009C71000008040020E001002074000020D8
:103A2000700600200024F4001073000068000020DD
:103A3000B471000048710000807300000072000043
:103A400018720000D8710000200400204C720000A1
:103A50007472000080010020C8720000AC72000087
:103A6000A4720000B001002011040020B872000010
:103A700068730000F8720000809FD50000879303F0
:103A80002473000034720000DC71000080720000BA
:103A900080710000CC7200003C730000F8B55746FE
:103AA0004E464546DE46624BE0B59A4643001E1838
:103AB000F60056441700F26A89469046012A0CD057
:103AC000022A4AD0002A28D0002398464046F0BC5B
:103AD000BB46B246A946A046F8BDB26A716A8A42A0
:103AE00076D9013A356A521AB846974200D99046BB
:103AF0001B18DC005444431C676A5800C018EE1BB6
:103B0000C000B04569D2504440684246C019494699
:103B1000474402F0D9FD6762D8E7B26A716A8A4207
:103B200051D9013A521A9742D0D81B18DC0054449C
:103B3000236A656A013098465E1B4300B74260D233
:103B40001B18DB00534458683A00401949467D1958
:103B500002F0BAFDB8466562B8E700230130984626
:103B600043001818C3009B46756AB36AAB421ED95E
:103B7000013B346A5B1BBB4200D93B00641B9C4287
:103B800000D91C0053465B4458684946401922003E
:103B900002F09AFD336A2D19A044A1443F1B9D42B7
:103BA0000AD07562002F91D0B36AAB42E0D8346A74
:103BB0001B19013B5B1BDEE700237362002F00D162
:103BC00084E70025D1E7346A1219013A521AAAE7AC
:103BD000356A5219013A521A86E7824453465B68A5
:103BE00032004946D81902F06FFD434631005D1B93
:103BF0005346ED192A005868494402F065FD656294
:103C000064E71818C000824453465B6832005819B4
:103C1000494602F059FD43467D19ED1A31005346DD
:103C20002A005868494402F04FFDB84665624DE7E6
:103C30000008002010B5124C2378002B00D010BDD6
:103C40000222226162610F4A0F49A261A2640F4AF7
:103C5000E1618021E26410228900A362E362636271
:103C6000E365A3652162636509492265E01D02F0F1
:103C700069FD2000074902F065FD2023A371DEE7FE
:103C8000000800209C7300008808002078080020AD
:103C9000A8730000AC7300000B78032B0AD80A7AD3
:103CA00053009B18044A9B001268D3184A781A7272
:103CB00000229A727047C046880A002020BF7047D1
:103CC00070B51B4B02001B78834226D9194D440066
:103CD00024182B68A4001B19186800281DD0597AD5
:103CE000C90717D5596800291ED0012199720368A8
:103CF00011491B6898472B681B19002804D009E05C
:103D00005B6898472B681B199A7A002AF8D11A7AAF
:103D1000002A04D0587AC0B270BD0320FCE701210C
:103D20005A7A8A435A72F5E704495960DDE7C0467A
:103D30008C0A0020880A0020993C0000BD3C00004D
:103D4000074B1B78834208D943001818054B8000A5
:103D50001B681818407AC0B270470120FCE7C046C3
:103D60008C0A0020880A0020F0B515001C4A85B096
:103D70001278824230D9002B2ED01A4E44002418DB
:103D80003268A40012191068002827D00120577A41
:103D9000384223D1039101950293176890723B68D2
:103DA00038005B69984703689D4206D23B6838003B
:103DB0009B6801A99847002804D0012005B0F0BDF8
:103DC0005B68984733681B199A7A002AF8D1187AE9
:103DD000431E9841C0B2F1E70420EFE70320EDE76E
:103DE0008C0A0020880A0020F0B515001F4A85B013
:103DF0001278824233D9002B31D01D4E44003268F4
:103E00002418A40010190268002A2AD00122477A37
:103E10003A4226D1477A7F0725D403910195029330
:103E2000076882723B6838005B69984703689D4267
:103E300006D23B683800DB6801A99847002804D007
:103E4000012005B0F0BD5B68984733681B199A7A6A
:103E5000002AF8D1187A431E9841C0B2F1E7042035
:103E6000EFE70320EDE70220EBE7C0468C0A0020D5
:103E7000880A002070B5030023481400007882B03F
:103E8000984208D901291FD002292CD001200029ED
:103E900003D002B070BD0420FBE76A465D00ED1858
:103EA0001A4ED41DAD0020703368002158590268A5
:103EB000136922009847002801D0112802D12378E5
:103EC000002BF1D10020E4E7104A5800C318126813
:103ED0009B009858002815D003685B6998470368D1
:103EE00000202360D5E7094A5800C31812689B00D8
:103EF0009858002806D003685B69984743680020FB
:103F00002380C6E70320C4E78C0A0020880A00202B
:103F1000024B1860024B19707047C046880A002097
:103F20008C0A002070B5C3691A78202A00D196E067
:103F3000052A00D1E03201244A72C3695D7822006B
:103F4000202D06D0052D00D1E035621C0C196572BC
:103F5000C3699D781400202D06D0052D00D1E035D1
:103F6000541C8A185572C369DD782200202D06D0B2
:103F7000052D00D1E035621C0C196572C3691D79ED
:103F80001400202D06D0052D00D1E035541C8A18D0
:103F90005572C3695D792200202D06D0052D00D110
:103FA000E035621C0C196572C3699D791400202DDF
:103FB00006D0052D00D1E035541C8A185572C3690E
:103FC000DD792200202D06D0052D00D1E035621CC0
:103FD0000C196572C3691C7A202C0AD0052C00D1FB
:103FE000E0342E26531C8D18CB186E725C72C36998
:103FF00002325D7A1400202D06D0052D00D1E03567
:10400000541C8A185572C3699A7A2300202A05D055
:10401000052A00D1E032631C0C1962720022CB1811
:104020005A72C369DB7A0B72C5696C7F2B7FAA7FDA
:1040300024021C43EB7F120414431B0623430B6032
:10404000C469E07DA37D227E00021843637E1204D2
:1040500010431B060343CB801B0C8B8070BD0024D8
:104060006CE7C046F8B5CE46474681460D009846F7
:1040700080B5002A10D02B78681C190061391C000B
:10408000192900D98EE0203CA4B21C2B00D88EE068
:10409000013A0500002AEED14B461A78002A00D1D9
:1040A000AEE02C0048463F2A20D02A2A1ED013001A
:1040B000613B461C91B2192B48D8203989B21C2A81
:1040C00049D9237830001E00613E1A00671C192E62
:1040D00055D8203A92B21C2B56D93C008A4219D1AD
:1040E000002A00D190E002783F2ADED1002300228E
:1040F000017801303F2900D175E0012301783F2983
:10410000F7D02A29F5D02100FFF7ACFF002800D016
:104110007AE022782B78681C19006139192966D950
:10412000E031C9B21E2960D86B78190040393E29A8
:1041300064D9803BDBB27C2B60D905004346002B61
:1041400046D0002A44D04B461A78AAE713007F33A2
:10415000DBB21E2B5DD843781A00403A3E2A03D9C1
:10416000403AD2B27C2AACD80902194323780230F3
:104170001E00613E1A0089B2671C192EA9D91E00C3
:104180007F36F6B21E2E41D863781E00403E3E2E8A
:1041900003D9403EF6B27C2E9FD812021A43023455
:1041A00092B29BE719007F31C9B21E2915D86B78EE
:1041B000190040393E2903D94039C9B27C2910D8A9
:1041C00024021C430235A4B2013A002C00D050E76F
:1041D0000020C0BCB946B046F8BD2033DBB21C2B72
:1041E000E5D90500F0E7013288E72033DBB21C2B6C
:1041F000A3D86B78190040393E299AD802359DE73B
:104200004346002B00D14CE70120E2E72033DBB22C
:1042100061E72032D2B252E770B501260023764220
:1042200004000D00C37006634B1C0CD00A00210073
:10423000012340783431FFF797FD002802D0042095
:10424000266370BD25631B4BE25CE3185B781B02A1
:104250001343194A934229D13423E35CE92B06D056
:10426000626B164B02201340154A9342E9D120009D
:104270006A3042780178120283781143114A1B0494
:104280000B43934214D08623E05C86346278A37893
:10429000120202431B041A430B4BE0789C460006B3
:1042A00010436044431E98414000CAE70320C8E71A
:1042B0000020C6E73202000055AA0000FF00FF0000
:1042C000EB00900046415400BABEABCCF0B5C646F8
:1042D000060000B5C37804000D003436002B0FD162
:1042E00001232A0031006078FFF73EFD002803D14A
:1042F000256380BCB846F0BD012501206D42F7E77B
:10430000076B01233A0031004078FFF76DFD030091
:104310000120002BEDD1626AE370E369BA1A9A4278
:10432000DED2A2789046012A01D8D9E7E369FF18C6
:104330003A00012331006078FFF756FD01235B420C
:104340009C46E0444346012BF0D1C9E7F0B5454611
:10435000DE4657464E460023E0B50B60056883B045
:10436000002D0ED02E782C003300202E04D810E023
:1043700063780134202B0CD93A2BF9D10135AC42AA
:1043800001D00B2534E10B25302E00D030E1013473
:104390000460CC4B1C68002C00D135E101260C6078
:1043A0002378B2431500002B0FD06078FFF7C8FCCC
:1043B00006420AD1002D00D11AE104231D00054058
:1043C000034200D114E10A2512E1002300202380DA
:1043D000FFF776FCC30700D512E1002D01D043079B
:1043E000F1D400212000FFF717FF022800D1ADE033
:1043F000042800D106E10026012800D9F7E02200B8
:104400003F321178537880221B0292000B43934273
:1044100000D0ECE04A23E25C23004A335D782D02B1
:1044200015430DD158235A22E55C0133E35CA25CAD
:104430001B022B43120413435B22A55C2D061D4374
:104440004423E561E25C531EA270012B00D9CEE04B
:104450004123E15C8B460B1E618100D1C7E0013B2B
:10446000194200D0C3E04523E15C230045335B786B
:104470001B020B43994623811B0700D0B7E047235B
:10448000E15C230047335F783F020F430DD1542393
:104490005621E75C0133E35C1B023B43675C01315F
:1044A0003F043B43675C3F061F434223E15C23001C
:1044B00042335B781B020B43984600D197E06A4376
:1044C0004B4692461B0943449A440192574500D2F9
:1044D0008DE05346FF1A5946380002F069F85F45EF
:1044E00000D284E0784B984200D9B1E0774B9842F3
:1044F00000D94AE1434649469B19821C266256442C
:10450000A2616362E662002971D0019950008C4675
:104510006344A3620123801840081A4080186C4A43
:1045200094466044400A854261D30122524222618E
:10453000E26081322271674A2370138800250133BB
:104540009BB21380E3800023636151E0FB235B0097
:10455000E35C0026002B0CD0FD235B00E2185178B1
:10456000E65C090293783143D6781B04194336067A
:104570000E430022584B9046E35C002B0CD0574B67
:10458000E0184178E25C837809020A431B04134374
:10459000C27812061A439046514B0027E35C002B69
:1045A0000BD0504BE118E75C4B788A781B023B43F9
:1045B000CF78120413433F061F434B4B0025E35CA7
:1045C000002B0BD0494BE118E55C4B788A781B0235
:1045D0002B43CD78120413432D061D43002E20D10A
:1045E0004346002B24D1002F2AD1002D0ED10D25BA
:1045F000280003B0F0BCBB46B246A946A046F0BDB9
:104600000325F5E70125F3E70C25F1E72900200054
:10461000FFF702FE012800D8CAE001250428E7D0F0
:10462000E5E731002000FFF7F7FD0128D8D8E6E6DE
:1046300041462000FFF7F0FD0128D4D84646DEE6CB
:1046400039002000FFF7E8FD0128CED83E00D6E66D
:1046500043469B19636253469B19E3625E23023013
:10466000A0612662E25C23005E335B781B02134389
:104670004A461343BBD161226033A25CE35C120261
:104680001A436223E35C80001B041A436323E35C48
:104690001B061343A3620E4BC3185B0A9D42A6D3AD
:1046A00001235B422361E360813323711C3BE25CA5
:1046B000230064335B781B021343012B18D00323C0
:1046C00039E7C046900A0020F5FF0000F50F000012
:1046D000FF010000940A0020060200000A02000008
:1046E000160200001A020000260200002A02000042
:1046F000236B711C994204D02000FFF7E7FD0028CE
:10470000DDD1002323712B4BE25CE3185B781B02A5
:104710001343294A9342D2D135223423A25CE35C6D
:1047200012021A433623E35C1B041A433723E35C6B
:104730001B061343214A9342C1D18622862392004D
:10474000A1184A789B00E35C12021A438B781B0481
:104750001A43CB781B061343194A9342AFD18722E1
:1047600087239200A1184A789B00E35C12021A4347
:104770008B781B041A43CB781B06134388229200C4
:10478000A2582361E2600323D5E643464A469B19BB
:10479000023026625644A0616362E662002A00D1BC
:1047A00025E7019A400094466344A3620223B6E6DB
:1047B0002E0024E63202000055AA00005252614148
:1047C00072724161F8B5CE46474680B50378040061
:1047D0000D001600022B08D0032B58D00220012B0D
:1047E0001DD0C0BCB946B046F8BD436A090A9C4614
:1047F000036B6144994203D0FFF768FD0028F0D1B4
:10480000FF2123006D00490034330D405D19012361
:104810002E70B6B2360A6E700020E370E1E74B08E6
:10482000994689444B46590A636A9C46236B614406
:10483000994204D02000FFF749FD0028D1D134234C
:1048400098464B4601225F1CDB05A044DB0D434428
:104850002A423FD00F2118780840310101431970D6
:10486000636A790A9C46236B6144E270994204D0E2
:104870002000FFF72BFD0028B3D1FF05FF0D3609FF
:104880004744F6B201233E700020E370A9E7436A73
:10489000C9099C46036B6144994203D0FFF716FD9A
:1048A00000289ED1FE212300AD00490034330D4085
:1048B0005D19EB7836011B0932091E071643330ACE
:1048C0006B70330CAB7001232E70360EEE7000202F
:1048D000E37086E71E70636A790A9C46236B614425
:1048E000E270994205D02000FFF7F0FC002800D0CC
:1048F00077E70F21FF05FF0D47443B78360A8B43CE
:104900000E401E43BEE7C046F8B505000C0001206E
:10491000012909D9AB69994206D22B78022B51D0D3
:10492000032B2DD0012B00D0F8BD4E08686A7618F5
:10493000710A2A6B0918914206D02800FFF7C6FCBD
:1049400000284BD1686A2A6BF305771CDB0DEB1846
:10495000790A343309181E78914204D02800FFF7F1
:10496000B5FC00283AD1FF05FF0DED1934352B7841
:104970001B0233431809E207D6D41805000DD3E70C
:104980006B6AC9099C462B6B6144994204D028008C
:10499000FFF79CFC002821D1FE213423A40049000C
:1049A0000C402D19E85C0133EA5C0133EB5C120228
:1049B00002431B041A433723E85C0006104300013E
:1049C0000009B1E76B6A090A9C462B6B6144994266
:1049D00007D02800FFF77AFC002802D001204042CF
:1049E000A2E7FF2135223423640049000C402D1931
:1049F000A85CEB5C0002184396E7C046F0B545465C
:104A0000DE4657464E46E0B5036885690400984681
:104A100083B0002D68D03423434499463F239A46FF
:104A20001F3B9B4643461E6BAE421BD0DB78002BE0
:104A300061D143462A00587849460123FFF794F98B
:104A400000280DD0012342465B421363012000235E
:104A5000A36103B0F0BCBB46B246A946A046F0BD78
:104A600043461D63E3691A78002A3DD05146DB7A3C
:104A70000B40A371E52A07D02E2A05D00F2B03D0B7
:104A80005A469343082B1BD12669A5692036002D71
:104A90002AD080239B039E4226D2F3052768DA0D95
:104AA000002B23D161690135A56100290AD13A891A
:104AB0007309934218D234372661E761002DB1D1D2
:104AC0000020C6E7720A10007B89013B1840019064
:104AD0001A42F0D13800FFF717FF01283DD9431CD7
:104AE000B4D0BB6998422BD30420B0E73437BF1849
:104AF0002661E76196E7434632005878494601232C
:104B0000FFF772F90028A1D143464246D870526A95
:104B1000DB69B21A9A4200D38BE742469778012F9D
:104B200002D886E74346DB69F618434632005878D8
:104B300049460123013FFFF757F9012FF2D178E7EA
:104B40006061BB690238023B984208D2FB6A7D89EA
:104B50009C4645436544A561ADE7022077E7019B8C
:104B600034370020A3612661E76172E7F8B5C378A6
:104B70000400002B0BD12278032A2BD00022002125
:104B80006078FFF777F9431E9841C0B2F8BD07007F
:104B9000056B343701232A0039004078FFF724F9E8
:104BA00003000120002BF1D1626AE370E369AA1AC5
:104BB0009A42E0D2A678012E01D8DCE7E369ED182D
:104BC0002A00012339006078013EFFF70DF9012E1C
:104BD000F4D1D0E72379012BD0D121001300343157
:104BE00048420340024258D0260000223420353685
:104BF0002254012B4FD0013001362254032B50D1C7
:104C0000FE27013001362254FF3780250020AD00F9
:104C1000ED1AAA083433E3189200D21801C39A425D
:104C2000FCD103232A009A43B618BF1A954206D036
:104C30003070012F03D07070022F00D0B0701A4B6B
:104C40001A4AE2521A4B1B4A636386239B00E250C6
:104C5000872223699200A354174A180AA054174ABE
:104C6000180CA054164A1B0EA354E3680132A35437
:104C7000144A180AA054144A180CA054134A1B0EC4
:104C8000A354236A60785A1C22630123FFF7ACF80F
:104C90000023237172E70E4FB7E780270E00BF0095
:104CA000B3E7FF277F00B0E73202000055AAFFFFFD
:104CB00052526141727241611D0200001E020000E9
:104CC0001F02000021020000220200002302000057
:104CD000FF010000F0B557464546DE464E46E0B5BA
:104CE000036807008A46984683B0002900D0B2E0E6
:104CF0004346DE68002E20D19B6901363400352200
:104D0000013493469C4257D3012E00D1B3E00224D4
:104D10003D68AB69A34207D92B78022B00D182E012
:104D2000032B5ED0012B0DD00124200003B0F0BC7A
:104D3000BB46B246A946A046F0BD9B69B342DDD84A
:104D40000126DBE763089946A1444B46686A590A85
:104D50002A6B0918914206D02800FFF7B7FA0028FD
:104D60003CD1686A2A6B4B46591CDB05DB0DEB18FE
:104D700034331B780191490A09189946914204D0AD
:104D80002800FFF7A3FA002828D1019BDB05DB0DE3
:104D9000ED184B4634352A7812021A431309E107FD
:104DA0006BD5002B0CD0012BBED0A64263D043465E
:104DB0009B6901349C42A7D23D68012CB4D9A8E775
:104DC00043469B69A342AFD901222100404652428B
:104DD000FFF7F8FC002853D00128A5D10124644234
:104DE000A3E76B6AE1099C462B6B6144994204D0AE
:104DF0002800FFF76BFA0028F0D1FE22A300520032
:104E000013405A46ED183423A95CEB5C09021943A0
:104E10003623EA5C0133EB5C120411431B060B439F
:104E20001B011B09BDE76B6A210A9C462B6B614481
:104E3000994204D02800FFF749FA0028CED1FF227A
:104E4000630052001340ED183423E95C5B46EB5CD1
:104E50001B020B43A5E71800FFF756FD04000128CD
:104E600000D861E7431CB9D043469B69834200D90F
:104E70005BE7564642E7002457E713051B0D90E712
:104E80005346002B0ED0012B00D14DE743469B69C2
:104E90009A4500D348E7220051464046FFF792FC6E
:104EA000002899D143461A69DC609B69023B9A420B
:104EB00002D24346013A1A61434601221B79134349
:104EC0004246137131E7C046F0B557464546DE46C7
:104ED0004E460023E0B584680500076883B003618F
:104EE000002C1DD13B78022B16D83B89002B11D00A
:104EF000BB6AAB616C61002B0CD000203437EF61D2
:104F000003B0F0BCBB46B246A946A046F0BD0023A4
:104F10006C61AB610220F3E7BB6A002BE5D01C009B
:104F2000FF235B009B46CB3BFF3B7A899A460133CC
:104F30009946002A00D081E0012CEBD92E68B36994
:104F40009C42E7D23378022B5FD0032B35D0012B64
:104F5000E0D163089846A0444346706A590A326B10
:104F60000918914206D03000FFF7B0F9002863D14C
:104F7000706A326B4346591CDB05DB0DF318343382
:104F80001B780191490A09189846914204D03000D3
:104F9000FFF79CF900284FD14246019BDB05DB0D52
:104FA000F618343633781B021343012222401C09C1
:104FB000002A23D11B051C0D20E0736AE1099C46E1
:104FC000336B6144994204D03000FFF77FF9002829
:104FD00032D1FE23A4005B001C4053463619F45C1A
:104FE0004B46F25C3623F35C120222431B041A4345
:104FF0003723F45C2406144324012409012C89D9A5
:10500000BB69A34298D802207AE7736A210A9C46BA
:10501000336B6144994204D03000FFF757F9002800
:105020000AD15B4664001C4053463619F25C4B467D
:10503000F45C24021443E1E7012061E7B969A31E8F
:1050400002398B4200D362E75343FA6A94466344C1
:10505000AB614FE7F0B54546DE4657464E46E0B5F4
:1050600002680B7887B00400884604922F2B0FD07B
:105070005C2B0DD053698360019343461B781F2B33
:1050800015D82B2380222000E254FFF71DFF71E08A
:1050900043461A782F2A01D05C2A01D10133F8E760
:1050A00098460023A36043461B781F2BE9D9202391
:1050B0009C46A4446346059320239A4643460293A4
:1050C00053462122E3545146A3542223E154013391
:1050D000E1540133E1540133E1540133E15401332C
:1050E000E1540133E1540133E154029F0133E154AF
:1050F0003B782E2B32D0202B3BD9002108250020D5
:10510000A446203A2F2B61D05C2B5FD02E2B38D0B9
:105110008D422ED91E007F36F6B21E2E37D8BE5CC9
:1051200002303200403A3E2A40D86A1E8A4220D9D4
:10513000059C4A1C6354A65402313B5C421C202B44
:10514000E0D8029B64469C469444634602935346CF
:10515000E35CE52B00D187E104234AE06354029924
:105160004B782E2B00D077E1A3548B782E2B00D0D8
:1051700058E1062007B0F0BCBB46B246A946A0469F
:10518000F0BD0B2DF5D0100008210B25D5E71E0032
:105190002036F6B21C2EC2D92220BD4E03E0707814
:1051A0000136002807D08342F9D1E2E7403AD2B273
:1051B0007C2ABAD9DDE718006138192801D8203BCC
:1051C000DBB20598435410000131B6E76446029BF8
:1051D0009B181A782F2A01D05C2A01D10133F8E7F5
:1051E00002930029C5D05346E25C0023E52A00D192
:1051F0003FE12B222000A3542768FFF765FE00281B
:1052000000D023E1342399462C3B9B46A569B94441
:105210003E6BAE4211D0FB78002B00D0A5E00123FD
:105220002A0049467878FEF79FFD002804D0012324
:105230005B4201203B639DE73D63E3691A78002AE6
:1052400000D184E03F2258465D46D97A0A40A271D7
:10525000DA7A1040154223D02669A5692036002D40
:1052600075D080239B039E4271D223689846F30534
:10527000DA0D0192002B0BD161690135A56100297E
:1052800000D09BE0424612897309934200D3B1E0FB
:10529000019A43469446343363442661E361B7E799
:1052A0005246A55C1A789542D6D12122A55C5A783F
:1052B0009542D1D12222A55C9A789542CCD1232265
:1052C000A55CDA789542C7D124221D79A25C95426B
:1052D000C2D125225D79A25C9542BDD126229D795D
:1052E000A25C9542B8D12722DD79A25C9542B3D168
:1052F00028221D7AA25C9542AED129225D7AA25C59
:105300009542A9D19A7A2A23E35C9A42A4D12B230D
:10531000E35C5B0700D52DE7CB0600D4A2E0236950
:105320000499DA050B00D20D34339B18DA7E987E8F
:10533000097812020243032901D0A260C0E6197D58
:105340005B7D1B020B431B041A43A260B8E62B23B0
:10535000E35C52461A4200D180E05B0700D4AFE61E
:105360002B2380220020E25404E701233200494627
:105370007878FEF739FD00283AD17A6AFB69F8702F
:10538000B21A9A4200D34AE7BA789046012A00D866
:1053900045E74A46A1464446A846150000E0FB6999
:1053A000F6183200012329007878013CFEF71CFD35
:1053B000012CF4D14C46A946454630E74346720AD3
:1053C00010005B89013B184003901A4200D05FE750
:1053D0004046FFF799FA01281FD9431C08D04346DD
:1053E0009B6998420AD3039BA3612B23E35CB0E73C
:1053F0000120BFE62B23A161E35CAAE7434660617D
:105400009B690238023B984209D243465D89DB6AB8
:1054100045439C466544A5613AE70220AAE600257B
:10542000A56135E703222F2B01D05C2B25D1029BF0
:1054300020009C46944463462B2202932023A354CD
:105440002768FFF741FD002800D1DBE62B23E35C52
:10545000042800D17DE78DE60222E4E704205B0703
:1054600000D587E6052085E605235246A354013B77
:10547000BFE65146E03A6254BBE6202B00D978E6FD
:10548000029B9C469444634602932423B1E6C046A3
:10549000B4730000F0B54E464546DE465746E0B5CB
:1054A0000C0006001100056883B0012C17D9AB6908
:1054B000A34214D9002A1AD12F00FF22520093468A
:1054C000CB3AFF3A924601329146A34207D93B7844
:1054D000022B00D171E0032B4CD0012B15D0022000
:1054E00003B0F0BCBB46B246A946A046F0BD012AB7
:1054F000F5D09342F3D9012228005242FFF762F916
:105500000028EDD13768BB69D7E763089846A04407
:105510004346786A590A3A6B0918914207D0380015
:10552000FEF7D4FE002800D081E0786A3A6B43464B
:10553000591CDB05DB0DFB1834331B780191490A3C
:1055400009189846914204D03800FEF7BFFE0028A3
:105550006DD14246019BDB05DB0DFF1834373B78EC
:105560001B0213431A099046E2073DD41B051B0D8D
:10557000984639E07B6AE1099C463B6B614499425D
:1055800004D03800FEF7A2FE002850D1FE22A3006E
:10559000520013404A46FF185346B95CFB5C0902AF
:1055A00019433623FA5C0133FB5C120411431B06DA
:1055B0000B431B011B09984616E07B6A210A9C4697
:1055C0003B6B6144994204D03800FEF77FFE00280F
:1055D0002DD15A4663001340FF185346FA5C4B46E0
:1055E000FB5C1B02134398464346002B21D0012B42
:1055F00000D174E7AB69A34200D870E70022210014
:105600002800FFF7DFF8002800D069E7AA692B69B6
:10561000911E8B4205D2012101332B612B790B4363
:105620002B71424505D937684446BB694DE70120D7
:1056300056E7002054E7C046F0B5DE4657464E46D2
:105640004546E0B587B006000768FFF73DFC834696
:1056500000280BD0042801D107239B46584607B0E9
:10566000F0BCBB46B246A946A046F0BDB369984619
:1056700034239946B9443C6B444511D0FB78002B48
:1056800000D088E00123424649467878FEF76CFB5B
:1056900000287CD001235B423B6302339B46DDE75D
:1056A0004146F3691A78E52A01D0002A47D14145DD
:1056B00006D03800FEF70AFE002800D0C0E0F369EB
:1056C000032108005A421040114200D158E1002243
:1056D0005C1C1A70012800D1B4E09C1C5A7003288D
:1056E00000D069E11D25DC1C9A70202100221B18C6
:1056F000091A1A605A609A60DA601A615A619A61EE
:105700008908082900D09FE0DA613200F36921326C
:105710009A1A022A00D836E19A0700D033E1326A99
:105720001A60726A5A602822B25C1A722922B25C2C
:105730005A722A22B25C9A720123FB708EE7346996
:105740002034002900D187E780239B039C4200D3AB
:1057500082E733689A46E305DA0D0192002B08D000
:10576000554688463435019B34619C466544F56155
:1057700081E74B1C71699846B361002931D15246CB
:1057800012896309934269D255463435EBE74346A3
:105790003B63B16985E70123220049467878FEF72B
:1057A00023FB00282DD17A6AFB69F870A21A9A426D
:1057B00000D367E7BD78012D00D863E74A46B146BC
:1057C000160000E0FB69E41822000123310078781C
:1057D000013DFEF709FB012DF4D133004E469946F9
:1057E00050E753465B89620A013B1A42CCD15046CE
:1057F000FFF78AF803000290012800D8DEE0421C7F
:1058000002D101239B4629E752469269904227D252
:10581000023B55461A0003933435029B736153468D
:105820009B69023B934200D803E153465B895A438C
:10583000130052469846D26A90444346B36192E7B9
:1058400083460BE71F2550E722771D2D00D15CE72B
:1058500062771E2D00D158E7A27756E7B161FBE6CB
:1058600030007169FFF736FA031E029000D1F3E6AB
:10587000012800D1A2E00133C3D053465546DB785E
:105880003435002B00D09CE003210B006A4213400A
:10589000114200D1E5E00022681C2A70012B00D1E2
:1058A000DCE0A81C6A70032B00D0DFE0AA70FE22A7
:1058B000FF329446E81C80218900C91A88468A086C
:1058C000EB189200D218002102C39A42FBD10323A5
:1058D000424641469A4313008018D243994208D069
:1058E000002362440370002A03D04370012A00D0D1
:1058F0008370029B9A1E53469B690392023B9A4215
:1059000000D3A6E051465346C96A5B8988465A438C
:105910009044524641461163002B00D194E000238D
:1059200004970594474654469846B2462E000123F4
:105930003A0031006078E370FEF756FA002800D094
:105940005FE7626AE369E070BA1A9A420ED2A578FC
:10595000012D01D80AE0E369FF183A000123310064
:105960006078013DFEF740FA012DF4D14346226BE9
:105970006189571C013327638B425DD29846D6E775
:105980001C002025B1E62022B25C1A702122B25CF4
:105990005A702222B25C9A702322B25CDA702422FE
:1059A000B25C1A712522B25C5A712622B25C9A71DD
:1059B0002722B25CDA71B6E61E2596E602239B46E4
:1059C0004CE653461B6B290098465346424658788E
:1059D0000123FEF709FA002800D012E75346524689
:1059E0004146D870526ADB698A1A9A4200D34BE763
:1059F00052469278012A00D846E721000397170003
:105A0000320044462E0088465546924600E0EB6937
:105A1000E4182200012331006878013FFEF7E4F921
:105A2000012FF4D153464446AA46039F35001E0079
:105A30002AE70023984600E74346D31A98463500E4
:105A4000049F5646A246059C424653461A63039A53
:105A5000E3E6534600225B8990465AE7054A94469E
:105A600029E7802292002800944624E7FF22520072
:105A7000944620E7FF01000010B582B00C1E019093
:105A800000910ED0097820000B00202904D80EE0E8
:105A900043780130202B0AD93A2BF9D10134A042A6
:105AA00002D00B2002B010BD0B203029FAD10D4BD3
:105AB0001968002901D000200870019900290DD033
:105AC0000020087001991960002908D0012AE9D145
:105AD0000022684601A9FEF739FCE3E719600020BF
