:1000000000400020CD1600000D1700000F17000063
:1000100000000000000000000000000000000000E0
:1000200000000000000000000000000011170000A8
:10003000000000000000000013170000151700006A
:1000400009120000171700008112000017170000A6
:100050001717000000000000171700001717000016
:1000600017170000171700001717000017170000D8
:1000700017170000171700001717000017170000C8
:10008000171700005D0B000017170000171700007E
:10009000390C000017170000171700001717000091
:1000A00017170000171700000000000000000000F4
:1000B0000000000000000000000000000000000040
:1000C00010B5064C2378002B07D1054B002B02D02E
:1000D000044800E000BF0123237010BD7000002021
:1000E000000000007C240000044B10B5002B03D05E
:1000F0000349044800E000BF10BDC04600000000F6
:10010000740000207C240000402292029A1A924639
:100110007047C046174B002B00D1134B9D46FFF78D
:10012000F3FF00218B460F461348144A121A00F0C1
:1001300065F80E4B002B00D098470D4B002B00D0DC
:1001400098470020002104000D000D48002802D02F
:100150000C4800E000BF00F02DF82000290001F05D
:1001600055F900F011F8C04600000800000000003A
:100170000000000000400020700000209C070020CC
:100180000000000000000000084B10B50400002B28
:1001900002D0002100E000BF054B1868836A002BE5
:1001A00000D09847200000F031F8C0460000000061
:1001B0007422000070B500260C4D0D4C641BA41079
:1001C000A64209D1002602F049F80A4D0A4C641BE8
:1001D000A410A64205D170BDB300EB589847013674
:1001E000EEE7B300EB5898470136F2E768000020CD
:1001F00068000020680000206C00002003008218C6
:10020000934200D1704719700133F9E7FEE7C04609
:10021000F0B5C64600B5C6B090461D004C9F0029FB
:1002200025D00B68802106AE3000604A490001F0FD
:10023000EDFA031E16DB0400062F0FD85C4ABF0040
:10024000D25997460700404601F01CFBC319040031
:10025000FF2B00D8A3E0002C04DBE41980235B0013
:100260009C420BD9002046B080BCB846F0BD062F9A
:1002700003D8504ABB00D3589F4600240A270025C4
:1002800006AE22007119002001F022F92D18241A5F
:10029000002802D1013F002F01D0002CF1D1012014
:1002A000E1E780210027490006A842462B6801F0BB
:1002B000ADFA0400CFE780210027490006A86A694B
:1002C0002B6804922A690392EA680292AA68019252
:1002D0006A680092424601F099FA0400BBE7802167
:1002E0000027490006A82A692B680392EA6802924F
:1002F000AA6801926A680092424601F087FA0400F7
:10030000A9E780210027490006A8EA682B68029225
:10031000AA6801926A680092424601F077FA0400E6
:1003200099E780210027490006A8AA682B68019256
:100330006A680092424601F069FA04008BE7802166
:100340000027490006A86A682B680092424601F01F
:100350005DFA04007FE7802149001F003018C91AA8
:10036000ADE7802149001F003018C91ADDE7802160
:1003700049001F003018C91AB5E7802149001F0045
:100380003018C91AC1E7802149001F003018C91A66
:100390008BE7802149001F003018C91AD3E706AE49
:1003A00022004146F01901F027FA54E778220000B4
:1003B000802200009C220000F0B545465746DE46EC
:1003C0004E46E0B5C9B01500559A98469446539BE1
:1003D00063449A46002900D10DE14346002B00D129
:1003E000CCE00A230020079308AB0593002399462D
:1003F000534601934346202402930799059D8C465A
:10040000844463460200AC4606933133624463443D
:1004100003920493002914D01470547002290BD055
:100420009470D470147154719471D471082903D0EC
:1004300014720A2900D15472079A039B94466344AC
:1004400003930F218A46593100268846039B049A5C
:10045000029D0199A94200D9A5E0501CD91C1C702D
:100460005C709C708846147082460295721C0F2E38
:1004700055D01027BB1A9C464D469300D31A3033F3
:10048000CB1898426D4163460095C518AB464F4660
:100490005B464D4699427D412B00009D1D4300D196
:1004A000CAE003000B439B4603235D462B401D001F
:1004B0006B426B410F25AA1A934606225A45924178
:1004C00052421A4200D1B7E063469A080C236746AD
:1004D0005343029D934A5B180A604A608A600C315C
:1004E00004C08B42F8D103233900524699434B4351
:1004F000501802954344B21C8F4210D08A181C70C9
:100500005C709C700470102A09D0DC701C715C71E6
:1005100044700F2A03D09C71DC711C7284700D230F
:10052000049A00261374033B5374039A2633D4545D
:10053000263B1D00029A059B92469846069F43372C
:1005400043463A009919002000F0C2FF36183F1ABE
:10055000002802D1013D002D01D0002FF0D15346DB
:100560000293019B0020534500D946E7504649B00D
:10057000F0BCBB46B246A946A046F0BD08AA0B682F
:100580001400802105922000674A490001F03EF9DD
:1005900003000020002BEADB984622000A23424495
:1005A000160007932FE05399A94220D95299495D2B
:1005B0000F09380037309F2900D807381870504687
:1005C000084007003737092801D8303007005F702E
:1005D000474656489C70405CB84300D12E210136F6
:1005E00011700135102E25D00333013231E75498B4
:1005F000691A415CDCE74346002B15D100230793C1
:1006000008AB1E000593280001F03CF90400C22845
:1006100000D9C22422002900300001F0EDF82000AA
:10062000002340449846E1E60023079308AB0020EE
:100630000593DBE6029572E70C704C708C700470C9
:100640000E2E00D16BE7CC700C714C7144700D2EE6
:1006500000D164E78C71CC710C7284700C2E00D1C7
:100660005DE74C728C72CC72C4700B2E00D156E7D1
:100670000C734C738C7304710A2E00D14FE7CC734A
:100680000C744C744471092E00D148E78C74CC74FE
:100690000C758471082E00D141E74C758C75CC75B2
:1006A000C471072E00D13AE70C764C768C76047232
:1006B000062E00D133E7CC760C774C774472052EAA
:1006C00000D12CE78C77CC770C558472042E00D1A6
:1006D00025E72123CC540133CC540133CC54C472CC
:1006E000032E00D11BE732000133CC540133CC542C
:1006F0000133CC540E320473022E00D10FE70133C4
:10070000CC540133CC540133CC5444730E2A00D062
:1007100005E70133CC540133CC540133CC548473FA
:10072000FDE6C0462020202078220000482300005B
:1007300070B5084D04002B78074E002B02D033789B
:10074000834204D000F090FF012334702B7000200E
:1007500070BDC0468D0000208C000020004870470E
:100760001102000000487047B903000070B5002076
:10077000FFF7DEFF041E01D0200070BDFFF7EEFF83
:100780000500FFF7EFFFFF22044B9A608222D200A0
:100790009D50034A1C605C609850EDE7900000207B
:1007A0001404000010B50120FFF7C2FF10BDC046C1
:1007B000F0B5C64600B51B4C804600200F00A66869
:1007C00000F0DAFCA26863682568D31801335B1B6C
:1007D000012B07D8002B18D1002000F0D5FC80BCDD
:1007E000B846F0BD6B1C0020236000F0CDFC072153
:1007F0004346012019403540C90002350143BF027C
:10080000AD00394364196160E9E72921064B2A40AC
:100810009B0202320B439200691C2160A4186360A2
:10082000DAE7C04690000020B8220000F8B5CE46B6
:10083000474680B51F4C8146002090460F00A568B2
:1008400000F09AFCA26863682668D31801339B1BEA
:10085000022B08D8002B21D1002000F095FCC0BC51
:10086000B946B046F8BDB31C0020236000F08CFCF4
:100870004B4607201840330041212B40C000023373
:100880000843BF029B00E31807435F6043460136FD
:1008900035400235AD0064196360E0E72921064B5D
:1008A00032409B0202320B439200711C2160A4185B
:1008B0006360D1E790000020B8220000F0B5DE466A
:1008C00057464E464546E0B51F0003339B109846F9
:1008D000324D834683B000208A469146AE6800F0D0
:1008E0004BFC4146AA686B682C68D318013303316E
:1008F0001B1B8B420BD2002B43D1002000F044FC89
:1009000003B0F0BCBB46B246A946A046F0BDA31C4E
:100910000020019343442B6000F036FC5A46072028
:100920001040BB052200C000184302233240184388
:100930001300524602339B00EB18013458603440D8
:10094000019B02341E40A400AB682C1962605C1C41
:10095000A41B0336B000A4004019A74204D83A00F3
:10096000494600F049FFCBE72200494600F044FF2A
:10097000210028003A1B92B249440C3000F03CFFA1
:10098000BEE72921064B22409B0202320B43920014
:10099000611C2960AD186B60AFE7C0469000002075
:1009A000B8220000F0B54E46DE4657464546E0B553
:1009B000584E8BB0736832689A4200D17CE00322B3
:1009C000B0685D1C03409C1CA300F3185F68130013
:1009D0003B403A420ED1BB0D3F04BF0DDB195B1902
:1009E0005D1C03409C1CA300F3185F6813003B4090
:1009F0003A42F0D0022B2FD0BB0A9C46BA0504AB7A
:100A00009846120F0DD004AB00249846611901409E
:100A10000231890071184968013402C3A242F5D835
:100A2000AD1882230092DB00B806F45862464346B4
:100A30000021400FA04700280CD075603068401B93
:100A4000431E9841C0B20BB0F0BCBB46B246A946AB
:100A5000A046F0BD7568F1E76B1C98463B049B0D02
:100A60009B460100434605400235AD009943751988
:100A700001316A688900BD0D8D421FD9002941D01E
:100A80001840CBB2E91A99460C2303308000844603
:100A90009A46B444C9B2B244534602934B460193BA
:100AA000634603911C4900937358B8069946002188
:100AB0005B46400FC84715E00020C4E7B9064B0F5E
:100AC0009C46434600211840033003910291810067
:100AD000711800911049019573586046994600219C
:100AE0005B46C847A84209D00C4B8005000C1F404C
:100AF000A40007433419756867609FE703308508D1
:100B000045449AE7EBB2994600239A460C339C463B
:100B1000B444C1E790000020140400003F00FFFF30
:100B2000002300B585B001AA90600021034813801E
:100B3000536000F005F805B000BDC046014000005C
:100B4000012010B50449FFF733FEFFF72BFEFFF736
:100B500029FF0028FBD1FFDEC4220000A021F0B550
:100B60000023C6462B4A490000B553500431535068
:100B700004315350043153504C39535004315350C5
:100B8000254B1B68002B35D0244900265458244A95
:100B9000244F1268A41A002224029046240A02E07C
:100BA000002D18D02B001A68A24214D8A41AB61827
:100BB0001A7CDD69002AF3D0424699691A745A6991
:100BC0003B68002B19D0100098470028E8D0FFF7A9
:100BD000A7FF002DE6D11449144A0B7812789A42E7
:100BE0000ED0134A9B009E5080218023114A5B0047
:100BF0004903D15080BCB846F0BD08009047CFE70C
:100C00000132D3B2022B01D00B70EAE700230B7044
:100C1000E7E7C04600100140C804002004050000BA
:100C2000C4040020A8040020C1040020C004002047
:100C3000B804002000E100E0F0B54546DE46574626
:100C40004E46E0B5CB4BCC4A1B68CC499846CC4BC2
:100C50008DB01B68097807931378994200D167E13A
:100C60000133DBB2022B00D160E11370C54A9B0057
:100C70009C5843461B191B021B0A9B465A46BD4BF8
:100C80001A60C14B09931E785B780393B34200D17D
:100C90005BE101230493099B59465A689B7892466D
:100CA0000193BA4B00250A931B7857460893059386
:100CB0000023A446B1460B91079A3100039E069388
:100CC00002934B005B18DB00F81882460131019853
:100CD000C9B2081A441EA041FB5C40420140022BED
:100CE00000D1B8E0032B07D1002A05D01574D269D2
:100CF000002AFBD101230693B142E2D1029BBA46FE
:100D000064464E46002B00D0C6E1069B002B08D05F
:100D10009B4B1A60079B07929B1A591E8B41DBB2B3
:100D20000693049B0025002B00D017E100239C466E
:100D3000079F02930593002D2FD028006968AB68A8
:100D4000ED695A46924C8A1A1202120AA24256D8E9
:100D5000D3180360624642608260012202746246D8
:100D6000C261002F67D03C683A009C425CD2A84622
:100D7000814603E01168994261D20C001500D269E6
:100D800018001B1B002AF5D14846A94645460360BA
:100D90004B46C261D861002DCFD1039B9E4200D14A
:100DA00026E1514673009B19019A0136F6B2B21A38
:100DB000501E8241DB00CC18CB5C52421640012B06
:100DC00066D16068027C002A62D18A46A16890469A
:100DD0004160E36883602269C2606269089C826145
:100DE00001220592002CACD04246002142605A46B6
:100DF00005948A1A664C1202120AA242A8D95A46CF
:100E0000511A0902090A994202D25B1A0360A1E74A
:100E10006346036043608360012303746346C361D8
:100E2000002F08D000233C68E31A3B600123C76110
:100E3000029307007FE70123070002937BE70491F9
:100E40002900454680464846894604990919444682
:100E5000091B11609BE753465868002A00D14BE7F5
:100E6000904200D129E113001C00DB69002B00D166
:100E700042E79842F8D1A0424CD01868DB6982461C
:100E8000E361002B00D137E718685044186033E75E
:100E9000039BB34286D11A00099B1A70029B002B58
:100EA00000D19FE0364B1F60079B9F4202D1069BFB
:100EB000002B25D0002F00D108E1364A3648374CA8
:100EC00081585A468A1A12022578120A3B68033260
:100ED000002D00D193E0934226D3A8245B442E48F2
:100EE0001B021B0A2B4DE400035142595B1A521A94
:100EF0001202120A1B0203321B0A9A4200D9A4E012
:100F000000230A9A13700DB0F0BCBB46B246A94646
:100F1000A046F0BDD269002A00D1B1E003689A462C
:100F2000C36901200690AFE71300D6E700239CE6D3
:100F3000154B09931E785B7803939E4200D1F9E02C
:100F40000023C34600240493A5E6099B5A689B78B6
:100F5000924601930D4B0A931B780893079B002B35
:100F600000D1F5E0002247460021002500209446EC
:100F7000B04629E0C4040020C0040020C1040020C1
:100F8000C8040020B8040020AC040020B4040020F1
:100F9000FEFF7F000405000000100140B5040020A2
:100FA000A41A80186246DE681A60DA69002E06D03C
:100FB000DD611D0039180902090A59609E6001218E
:100FC000002A00D171E013001A68A242E8D946460F
:100FD000002902D0604907930B60121B1A6001239D
:100FE0000693A3E6069B079F002B00D188E761E7E5
:100FF000059B002B00D151E7099B1E704EE7802511
:10100000D1266D02B6008551403E8551C02780260D
:10101000524DB6027F00EE512E600125056050480A
:10102000504F06682F20C046C046C046C046C04646
:10103000C046C046C046BE4200D0C0460138F2D1CC
:101040002570934200D348E76EE743594549035161
:10105000434B1A682F23C046C046C046C046C04610
:10106000C046C046C0468A4200D0C046013BF2D1CD
:1010700080238021394A5B008902D15040E7140067
:1010800001220020384B9A600B9001300692230019
:10109000002202900590F0E60A99059B33480B70F8
:1010A0000B9908938B4601602FE62B4B46461A603E
:1010B000002307930133069338E6D0690028DED079
:1010C00013001400020001200690D6E68021802340
:1010D000224A8902D1508023D2210124224A5B0274
:1010E00089005350403953501D4B546019682F23C9
:1010F0001C481D00C046C046C046C046C046C0464B
:10110000C046C046814200D0C046013DF2D1946045
:10111000164A1760C046C046C046C046C046C046D4
:10112000C046C046814200D0C046013BF2D1104BC0
:101130001F70E5E6099BC3465A689B789246019367
:101140000C4B00250A931B78089300230693EDE5CA
:10115000012300250693E9E5C804002000E100E032
:10116000640000200024F40000100140C4040020AA
:10117000B5040020B404002072B6024A136801339B
:1011800013607047CC040020034A1368013B1360CE
:10119000002B00D162B67047CC040020A02210B50D
:1011A000074BD205D158074B185C012383401C0024
:1011B000A1208C430B400449C0001450535010BD73
:1011C00004050000DC2200000C050000A02303221F
:1011D0000B49DB055A5004315A500A495A50043120
:1011E0005A50A1228021D200890399508021C9033D
:1011F00099508021090499508021490499507047E1
:10120000540700005C07000010B51A4B1A68002A4A
:1012100014D0002280211A60C2220123164CC90575
:1012200092008B506370A368002B07D01A680020CF
:101230005B68A2609847A368002BF7D10F4B1A6830
:10124000002A15D000221A608022C22302219B00AE
:10125000D205D1500123084CA3702369002B07D07D
:101260001A6801205B68226198472369002BF7D137
:1012700010BDC04600010040D00400200401004021
:10128000C12330B55E4A9B00D35885B09B0559D524
:1012900092235B00D158002954D00021D1508121E4
:1012A000E533FF338900D150564B997E002901D197
:1012B00001315160022269460A7090215048C900EC
:1012C0004258425069460392DA7D68460A72DA68EB
:1012D00001920022DA751A760ACB98478E21484A85
:1012E00049005358002B0FD0464B9C8A9D7DAC4241
:1012F00062D200205050998A9868405C998A0131E6
:1013000089B29982404BD050A2233D4A5B00D1580C
:10131000002915D00021D1503A4B997E002901D0E7
:1013200001211160DA7D002A0AD0002268460121DD
:10133000DA755A7E01700272DA680ACB0192984718
:1013400005B030BDC1232E4A9B00D3585B07C5D5DD
:10135000842149005358002BC0D02A4BD87D002847
:1013600038D000205050A320C000597E1258D868B1
:1013700042545A7ED87D0132D2B25A765A7E824287
:10138000ACD11A7E002A2AD19A7E002A02D10121EC
:101390001B4A5160C2228120194992008000885066
:1013A000002268460121DA755A7E01700272DA68FD
:1013B0000ACB0192984791E700205050002DA3D00E
:1013C0006A46107015729A689875019268460ACB41
:1013D000984799E75050A321C9005258CEE7DA75D3
:1013E0001A69D968DA6000226C46587E1A765A76F5
:1013F000013220722270684601910ACB98476DE74E
:1014000000200040E40400201C050000F8B5DE4682
:1014100057464E464546E0B5FFF7D8FE0020FFF799
:10142000A5F900283ED1234B234F9B46234B244E46
:101430009A46244B244D9946244B9846002420007C
:10144000FFF7ACFE5B461A682B00C046C046C0469C
:10145000C046C046C046C046C046B24200D0C046A4
:10146000013BF2D1FFF79EFA002812D0514603202B
:10147000FFF79EF90A2249460420FFF7D7F9013405
:101480000A23424639000420FFF718FA042CD6D16B
:10149000D4E7FFF787FA0028E8D0FFF783FA00289F
:1014A000F7D1E3E70020F0BCBB46B246A946A04610
:1014B000F8BDC0466400002024230000E0220000A4
:1014C0000024F400F822000020A1070014230000EB
:1014D000F8B557464E464546DE46624BE0B59A465D
:1014E00043001E18F60056441700F26A89469046DB
:1014F000012A0CD0022A4AD0002A28D0002398467C
:101500004046F0BCBB46B246A946A046F8BDB26A0A
:10151000716A8A4276D9013A356A521AB8469742B8
:1015200000D990461B18DC005444431C676A5800DD
:10153000C018EE1BC000B04569D250444068424616
:10154000C0194946474400F057F96762D8E7B26AC4
:10155000716A8A4251D9013A521A9742D0D81B185F
:10156000DC005444236A656A013098465E1B4300E0
:10157000B74260D21B18DB00534458683A00401948
:1015800049467D1900F038F9B8466562B8E700238E
:101590000130984643001818C3009B46756AB36A29
:1015A000AB421ED9013B346A5B1BBB4200D93B00F6
:1015B000641B9C4200D91C0053465B445868494652
:1015C0004019220000F018F9336A2D19A044A144F3
:1015D0003F1B9D420AD07562002F91D0B36AAB4287
:1015E000E0D8346A1B19013B5B1BDEE70023736202
:1015F000002F00D184E70025D1E7346A1219013A9F
:10160000521AAAE7356A5219013A521A86E78244F9
:1016100053465B6832004946D81900F0EDF843465E
:1016200031005D1B5346ED192A005868494400F00B
:10163000E3F8656264E71818C000824453465B68AB
:1016400032005819494600F0D7F843467D19ED1A83
:10165000310053462A005868494400F0CDF8B84696
:1016600065624DE70005002010B5124C2378002B71
:1016700000D010BD0222226162610F4A0F49A261AF
:10168000A2640F4AE1618021E26410228900A36212
:10169000E3626362E365A3652162636509492265CC
:1016A000E01D00F0E7F82000074900F0E3F82023F0
:1016B000A371DEE70005002030230000880500202C
:1016C000780500203C2300004023000003210A4845
:1016D00002680A430260094802680A430260084936
:1016E000084A094B9B1A03DD043BC858D050FBDC69
:1016F00000F012F8FEF70EFD2405004054050040EE
:10170000882400000000002070000020FEE7FEE7B3
:10171000FEE7FEE7FEE7FEE72D4B1B78012B00D02E
:1017200070472C4B1B681B07FAD12B4AF023126819
:10173000110019401A4201D0102946D1274A1268D7
:101740001A421FD0F022244B1B681340402B29D093
:10175000F022214B1B681340A02B01D0D02BDFD1EE
:10176000F0231E4A12681A42DAD11D4A1368012B6F
:1017700004D01C4B13601368012BFCD1C0221A4B00
:101780001A60CDE7194B1A4A1A608022194B1202CF
:101790001A600F4B1B78012BC2D10E4B1B681B0725
:1017A000D0D0BDE70D4B1B681342D1D18022C1239D
:1017B0000121DB00D205D150054B1B78012BAFD1A5
:1017C000044B1B681B07C3D0AAE73029B6D0B9E782
:1017D000E00F00F0E40F00F0E80F00F0EC0F00F075
:1017E00000EC06407593000014EC06400405004030
:1017F000DFFF07C0186C0040002310B59A4200D1EB
:1018000010BDCC5CC4540133F8E700000CB430B513
:10181000174B0C001D689DB0002908DA8B230120AE
:101820002B6040421DB030BC08BC02B01847822378
:101830006A469B009382002302900690994200D052
:101840004B1E0493079301236A465B42D382280010
:1018500021AB209A02A9019300F07EF8431C01DA23
:101860008B232B60002CDDD00023029A1370D9E764
:101870000000002003000A7801311A700133002AA9
:10188000F9D170470023C25C0133002AFBD1581EF6
:1018900070470000F0B58E6885B007000C00039219
:1018A00001939E423CD890238A89DB001A4234D0AF
:1018B0000969236860695B1A029303234343DD0FC0
:1018C000ED18019B029801331B186D10AB4200D933
:1018D0001D00530532D52900380000F049FB061ED3
:1018E00009D10C233B6040230120A28940421343CD
:1018F000A38105B0F0BD029A2169FFF77DFFA3899E
:10190000144A1A4080231343A381029B2661F618D0
:1019100026606561019EED1AA560019B9E4200D97B
:10192000019E32000399206800F0A3FAA36800200A
:101930009B1BA36023689E192660DAE72A00380003
:1019400000F08CFB061EE0D13800216900F0A4FAFB
:10195000C7E7C0467FFBFFFFF0B5A1B003901D00B5
:101960008B890F0016001B0611D50B69002B0ED1B9
:10197000402100F0FDFA38603861002805D10C23C1
:10198000039A0138136021B0F0BD40237B6100232E
:1019900008AC6361203363761033A3760795350076
:1019A0002B78002B01D0252B47D1AB1B0593B542DB
:1019B0000CD0320039000398FFF76CFF431C00D1B4
:1019C000AEE06269059B9446634463612B78002B0B
:1019D00000D1A5E0012200235242626004A95432E2
:1019E00052186E1C2360E360A3601370A365052288
:1019F0003178544800F032FA751C00281FD1226853
:101A0000D30604D5532304A95B18202119701307AA
:101A100004D5532304A95B182B21197033782A2B82
:101A200016D0350000210A20E3682A786E1C303A6F
:101A3000092A4ED9002911D117E00135B0E7414BF1
:101A40002268C01A0123834013432E002360CEE78F
:101A5000079B191D1B680791002B01DB0B9304E00A
:101A60005B42E3600223134323602B782E2B0AD1C1
:101A70006B782A2B35D1079B02351A1D1B680792FC
:101A8000002B2BDB0993304E03223000297800F025
:101A9000E5F9002806D04023801B834022680135E9
:101AA000134323602978062228486E1C217600F013
:101AB000D5F900283CD0264B002B25D10722079BC7
:101AC00007339343083307936369049A9B18636150
:101AD00065E74343350001219B18A6E701235B42DC
:101AE000D0E700230A201A000135636029786E1CB4
:101AF0003039092903D9002BC5D00992C3E74243E5
:101B0000350001235218F1E707AB00933A0021009A
:101B1000104B039800E000BF0490049B0133D3D125
:101B2000BB890D985B0600D42DE7012040422AE7CF
:101B300007AB00933A002100064B039800F07CF8B5
:101B4000EAE7C046482400004E240000522400006A
:101B50000000000095180000F7B5150001938A6891
:101B60000B690C000090934200DA130022002B60F6
:101B700043321278002A01D001332B6023689B0680
:101B800002D52B6802332B602268062317001F4002
:101B90001A4227D0230043331B785A1E93412268F0
:101BA000920630D4220001990098089E4332B04733
:101BB000431C25D0062320682A68E16800250340DD
:101BC000042B03D18D1AEB43DB171D40A368226958
:101BD000934201DD9B1AED180027BD4220D1002061
:101BE00010E00137E3682A689B1ABB42D2DD22006D
:101BF000012301990098089E1932B047431CF0D187
:101C000001204042FEBD3020E11843310870210020
:101C10005A1C45310978A218433202331170C1E7CA
:101C20002200012301990098089E1A32B047431CF4
:101C3000E6D00137D1E70000F0B58BB006920A007C
:101C400043320793059004920A7E0C00109B782A79
:101C500007D8622A09D8002A00D1C1E0582A00D149
:101C60008CE026004236327022E0100063381528DE
:101C7000F7D800F04FFA16001F00F6FFF6FFF6FF48
:101C8000F6FF1F00F6FFF6FFF6FFF6FFA80036008E
:101C90009A00F6FFF6FFB900F6FF3600F6FFF6FFF2
:101CA0009E0026001A684236111D196013683370B1
:101CB0000123A7E0086819680A1D05060BD50D6801
:101CC0001A60002D03DA2D23049A6D421370614BC4
:101CD0000A2703931BE00D681A604106F1D52DB267
:101CE000EFE70D681968081D18602E0601D50D680C
:101CF00003E06D06FBD50D68ADB2564B0827039384
:101D00006F2A00D002372300002243331A70636821
:101D1000A360002B03DB0422216891432160002D86
:101D200002D1049E002B0CD0049E2800390000F044
:101D300081FA039B013E5B5C33702B0005009F42E0
:101D4000F3D9082F09D12368DB0706D56368226918
:101D5000934202DC3023013E3370049B9B1B2361C2
:101D6000079B210000930598069B09AAFFF7F4FE44
:101D7000431C4CD1012040420BB0F0BD45310A70EC
:101D8000344A03921A68216820CA1A60080616D5D8
:101D9000CB0702D52023194321601027002DB2D193
:101DA000202322689A432260ADE7202209680A4373
:101DB00022602200782145321170274AE1E7480667
:101DC000E6D5ADB2E4E71A680D68101D49691860E0
:101DD00013682E0601D5196002E06D06FBD5198047
:101DE0000023049E2361BBE71A68111D1960166861
:101DF00000213000626800F031F8002801D0801B1B
:101E00006060636823610023049A1370A8E7236964
:101E1000320006990598079DA847431CAAD023685D
:101E20009B0715D4099BE0689842A5DA1800A3E740
:101E30002200012306990598079E1932B047431CDA
:101E400098D00135E368099A9B1AAB42F0DCE9E7C8
:101E50000025F7E7592400006A240000C9B282185F
:101E6000904201D10020704703788B42FBD00130B3
:101E7000F6E710B5884202D98B18984203D30023A5
:101E800007E08B5C8354013AFBD210BDCC5CC45498
:101E900001339A42FAD1F8E770B50500002910D055
:101EA0000C1F2368002B00DAE418280000F018F952
:101EB0001D4A1368002B05D163601460280000F0F0
:101EC00017F970BDA34208D9216860188342F3D185
:101ED00018685B6841182160EEE71A005B68002B08
:101EE00001D0A342F9D911685018A0420BD1206843
:101EF0000918501811608342E0D118685B684118D6
:101F000011605360DAE7A04202D90C232B60D5E7B9
:101F100021686018834203D118685B68411821600A
:101F200063605460CAE7C0468807002070B50F4E52
:101F30000D0031680400002902D100F0BFF83060C4
:101F40002900200000F0BAF8431C0AD00323C51C66
:101F50009D43A84207D0291A200000F0AFF8431C87
:101F600001D101256D42280070BDC0468C070020BC
:101F7000F7B50322CB1C9343083306001F000C2B3C
:101F800032D20C27B94231D8300000F0A9F8324DD6
:101F90002B681C00002C2ED139003000FFF7C6FF43
:101FA0000400431C1ED12C682500002D4AD1236853
:101FB0002900E3183000019300F080F8019B834270
:101FC00043D123680337FF1A03239F4308370C2F9D
:101FD00000D20C2739003000FFF7A8FF431C34D093
:101FE0002368DF19276013E0002BCBDA0C230025D0
:101FF00033602800FEBD2268D11B20D40B2917D9DD
:10200000E2192760A34211D12A606368116053600E
:102010003000250000F06CF807220B35231D954396
:10202000EA1A9D42E5D05B1BA350E2E75A60ECE759
:102030006268A34201D12A60EAE75A60E8E7230018
:102040006468A7E72C006D68AFE70C2330003360AD
:1020500000F04EF8CDE7C04688070020F7B507002E
:102060000E001400002905D11100FFF781FF0500C3
:102070002800FEBD002A03D1FFF70EFF2500F7E779
:1020800000F03EF80190844203D835004308A34293
:10209000EED321003800FFF76BFF051EE8D0019B4F
:1020A00022009C4200D91A0031002800FFF7A4FB4F
:1020B00031003800FFF7F0FEDAE70000002370B5CA
:1020C000064D040008002B6000F0BAF8431C03D151
:1020D0002B68002B00D0236070BDC0469007002005
:1020E00010B5024800F014F810BDC0469407002057
:1020F00010B5024800F00DF810BDC046940700204E
:102100000B1F1B68181F002B01DA0B58C0187047F3
:102110007047704703B47146490840004900095EA2
:1021200049008E4403BC7047002243088B4274D39D
:1021300003098B425FD3030A8B4244D3030B8B42C8
:1021400028D3030C8B420DD3FF22090212BA030CD1
:102150008B4202D31212090265D0030B8B4219D3B2
:1021600000E0090AC30B8B4201D3CB03C01A5241D2
:10217000830B8B4201D38B03C01A5241430B8B421A
:1021800001D34B03C01A5241030B8B4201D30B0303
:10219000C01A5241C30A8B4201D3CB02C01A52412A
:1021A000830A8B4201D38B02C01A5241430A8B42ED
:1021B00001D34B02C01A5241030A8B4201D30B02D6
:1021C000C01A5241CDD2C3098B4201D3CB01C01AF0
:1021D000524183098B4201D38B01C01A52414309FA
:1021E0008B4201D34B01C01A524103098B4201D3E8
:1021F0000B01C01A5241C3088B4201D3CB00C01A55
:10220000524183088B4201D38B00C01A52414308CC
:102210008B4201D34B00C01A5241411A00D20146F1
:10222000524110467047FFE701B5002000F006F864
:1022300002BDC0460029F7D076E770477047C04618
:10224000044A03001068002802D0C31813607047C6
:102250000148FAE798070020A0070020F8B5C0461B
:10226000F8BC08BC9E467047F8B5C046F8BC08BC30
:102270009E467047040000205B253038645D0000F6
:102280004402000086030000920300006203000085
:102290007A0300006E0300005603000046020000AF
:1022A000A20200003E03000022030000020300001F
:1022B000DE020000B60200004F766572666C6F7732
:1022C0000D0A00004150505F4552524F523A45525C
:1022D000524F523A466174616C0D0A001516171878
:1022E0003A494E464F3A73656E64696E6720646181
:1022F00074610D0A000000003A44454255473A25F2
:10230000642062797465732C20646174613A0D0AEB
:102310000000000070696F74727374617763696B99
:10232000690000003A44454255473A0D0A00000052
:102330005465726D696E616C000000005254540067
:1023400053454747455200002020202020202020D0
:102350002028282828282020202020202020202055
:102360002020202020202020881010101010101075
:1023700010101010101010100404040404040404BD
:10238000040410101010101010414141414141014E
:10239000010101010101010101010101010101012D
:1023A000010101101010101010424242424242023C
:1023B00002020202020202020202020202020202FD
:1023C00002020210101010200000000000000000A7
:1023D00000000000000000000000000000000000FD
:1023E00000000000000000000000000000000000ED
:1023F00000000000000000000000000000000000DD
:1024000000000000000000000000000000000000CC
:1024100000000000000000000000000000000000BC
:1024200000000000000000000000000000000000AC
:10243000000000000000000000000000000000009C
:102440000000000000000000232D302B2000686CED
:102450004C006566674546470030313233343536C7
:102460003738394142434445460030313233343500
:102470003637383961626364656600000000000029
:0824800088DCFF7F0100000071
:102488000400002000000000000000000000000020
:102498000000000000000000000000000000000034
:1024A8000000000000000000000000000000000024
:1024B8000000000000000000000000000000000014
:1024C8000000000000000000000000000000000004
:1024D80000000000000000000000000000000000F4
:1024E800000000000024F400E9000000C100000022
:04000003000016CD16
:00000001FF
